{
  "contractName": "Characters",
  "abi": [
    {
      "anonymous": false,
      "inputs": [
        {
          "indexed": false,
          "internalType": "string",
          "name": "name",
          "type": "string"
        },
        {
          "indexed": false,
          "internalType": "uint256",
          "name": "id",
          "type": "uint256"
        }
      ],
      "name": "NewCharacter",
      "type": "event"
    },
    {
      "anonymous": false,
      "inputs": [
        {
          "indexed": true,
          "internalType": "address",
          "name": "previousOwner",
          "type": "address"
        },
        {
          "indexed": true,
          "internalType": "address",
          "name": "newOwner",
          "type": "address"
        }
      ],
      "name": "OwnershipTransferred",
      "type": "event"
    },
    {
      "inputs": [
        {
          "internalType": "uint256",
          "name": "",
          "type": "uint256"
        }
      ],
      "name": "book",
      "outputs": [
        {
          "internalType": "string",
          "name": "name",
          "type": "string"
        },
        {
          "internalType": "uint32",
          "name": "id",
          "type": "uint32"
        },
        {
          "internalType": "uint32",
          "name": "readyTime",
          "type": "uint32"
        },
        {
          "internalType": "uint16",
          "name": "xp",
          "type": "uint16"
        },
        {
          "internalType": "uint8",
          "name": "rarity",
          "type": "uint8"
        },
        {
          "internalType": "uint8",
          "name": "level",
          "type": "uint8"
        }
      ],
      "stateMutability": "view",
      "type": "function"
    },
    {
      "inputs": [
        {
          "internalType": "uint256",
          "name": "",
          "type": "uint256"
        }
      ],
      "name": "characterToOwner",
      "outputs": [
        {
          "internalType": "address",
          "name": "",
          "type": "address"
        }
      ],
      "stateMutability": "view",
      "type": "function"
    },
    {
      "inputs": [],
      "name": "owner",
      "outputs": [
        {
          "internalType": "address",
          "name": "",
          "type": "address"
        }
      ],
      "stateMutability": "view",
      "type": "function"
    },
    {
      "inputs": [],
      "name": "renounceOwnership",
      "outputs": [],
      "stateMutability": "nonpayable",
      "type": "function"
    },
    {
      "inputs": [
        {
          "internalType": "address",
          "name": "newOwner",
          "type": "address"
        }
      ],
      "name": "transferOwnership",
      "outputs": [],
      "stateMutability": "nonpayable",
      "type": "function"
    },
    {
      "inputs": [
        {
          "internalType": "string",
          "name": "_name",
          "type": "string"
        }
      ],
      "name": "createRandomCharacter",
      "outputs": [],
      "stateMutability": "payable",
      "type": "function"
    },
    {
      "inputs": [],
      "name": "withdraw",
      "outputs": [],
      "stateMutability": "nonpayable",
      "type": "function"
    },
    {
      "inputs": [
        {
          "internalType": "uint256",
          "name": "_fee",
          "type": "uint256"
        }
      ],
      "name": "setCreationFee",
      "outputs": [],
      "stateMutability": "nonpayable",
      "type": "function"
    },
    {
      "inputs": [
        {
          "internalType": "address",
          "name": "_owner",
          "type": "address"
        }
      ],
      "name": "getCharactersByOwner",
      "outputs": [
        {
          "internalType": "uint256[]",
          "name": "",
          "type": "uint256[]"
        }
      ],
      "stateMutability": "view",
      "type": "function"
    }
  ],
  "bytecode": "0x608060405261012c6001556611c37937e0800060025560006100256100c860201b60201c565b9050806000806101000a81548173ffffffffffffffffffffffffffffffffffffffff021916908373ffffffffffffffffffffffffffffffffffffffff1602179055508073ffffffffffffffffffffffffffffffffffffffff16600073ffffffffffffffffffffffffffffffffffffffff167f8be0079c531659141344cd1fd0a4f28419497f9722a3daafe3b4186f6b6457e060405160405180910390a3506100d0565b600033905090565b611127806100df6000396000f3fe6080604052600436106100865760003560e01c806365e5a94b1161005957806365e5a94b14610299578063715018a61461033f5780638da5cb5b14610356578063b7d86225146103ad578063f2fde38b146103e857610086565b80631116fd041461008b57806319e7ce8b1461018e5780633be5c296146102095780633ccfd60b14610282575b600080fd5b34801561009757600080fd5b506100c4600480360360208110156100ae57600080fd5b8101908080359060200190929190505050610439565b60405180806020018763ffffffff1663ffffffff1681526020018663ffffffff1663ffffffff1681526020018561ffff1661ffff1681526020018460ff1660ff1681526020018360ff1660ff168152602001828103825288818151815260200191508051906020019080838360005b8381101561014e578082015181840152602081019050610133565b50505050905090810190601f16801561017b5780820380516001836020036101000a031916815260200191505b5097505050505050505060405180910390f35b34801561019a57600080fd5b506101c7600480360360208110156101b157600080fd5b8101908080359060200190929190505050610562565b604051808273ffffffffffffffffffffffffffffffffffffffff1673ffffffffffffffffffffffffffffffffffffffff16815260200191505060405180910390f35b6102806004803603602081101561021f57600080fd5b810190808035906020019064010000000081111561023c57600080fd5b82018360208201111561024e57600080fd5b8035906020019184600183028401116401000000008311171561027057600080fd5b9091929391929390505050610595565b005b34801561028e57600080fd5b50610297610657565b005b3480156102a557600080fd5b506102e8600480360360208110156102bc57600080fd5b81019080803573ffffffffffffffffffffffffffffffffffffffff169060200190929190505050610776565b6040518080602001828103825283818151815260200191508051906020019060200280838360005b8381101561032b578082015181840152602081019050610310565b505050509050019250505060405180910390f35b34801561034b57600080fd5b506103546108a3565b005b34801561036257600080fd5b5061036b610a2b565b604051808273ffffffffffffffffffffffffffffffffffffffff1673ffffffffffffffffffffffffffffffffffffffff16815260200191505060405180910390f35b3480156103b957600080fd5b506103e6600480360360208110156103d057600080fd5b8101908080359060200190929190505050610a54565b005b3480156103f457600080fd5b506104376004803603602081101561040b57600080fd5b81019080803573ffffffffffffffffffffffffffffffffffffffff169060200190929190505050610b27565b005b6003818154811061044657fe5b9060005260206000209060020201600091509050806000018054600181600116156101000203166002900480601f0160208091040260200160405190810160405280929190818152602001828054600181600116156101000203166002900480156104f25780601f106104c7576101008083540402835291602001916104f2565b820191906000526020600020905b8154815290600101906020018083116104d557829003601f168201915b5050505050908060010160009054906101000a900463ffffffff16908060010160049054906101000a900463ffffffff16908060010160089054906101000a900461ffff169080600101600a9054906101000a900460ff169080600101600b9054906101000a900460ff16905086565b60046020528060005260406000206000915054906101000a900473ffffffffffffffffffffffffffffffffffffffff1681565b6002600560003373ffffffffffffffffffffffffffffffffffffffff1673ffffffffffffffffffffffffffffffffffffffff16815260200190815260200160002054106105e157600080fd5b60025434146105ef57600080fd5b60006105f9610d34565b905061065283838080601f016020809104026020016040519081016040528093929190818152602001838380828437600081840152601f19601f820116905080830192505050505050508261064d84610d41565b610d8c565b505050565b61065f61101e565b73ffffffffffffffffffffffffffffffffffffffff166000809054906101000a900473ffffffffffffffffffffffffffffffffffffffff1673ffffffffffffffffffffffffffffffffffffffff1614610720576040517f08c379a00000000000000000000000000000000000000000000000000000000081526004018080602001828103825260208152602001807f4f776e61626c653a2063616c6c6572206973206e6f7420746865206f776e657281525060200191505060405180910390fd5b600061072a610a2b565b90508073ffffffffffffffffffffffffffffffffffffffff166108fc479081150290604051600060405180830381858888f19350505050158015610772573d6000803e3d6000fd5b5050565b606080600560008473ffffffffffffffffffffffffffffffffffffffff1673ffffffffffffffffffffffffffffffffffffffff168152602001908152602001600020546040519080825280602002602001820160405280156107e75781602001602082028038833980820191505090505b509050600080905060008090505b600380549050811015610898578473ffffffffffffffffffffffffffffffffffffffff166004600083815260200190815260200160002060009054906101000a900473ffffffffffffffffffffffffffffffffffffffff1673ffffffffffffffffffffffffffffffffffffffff16141561088b578083838151811061087657fe5b60200260200101818152505081806001019250505b80806001019150506107f5565b508192505050919050565b6108ab61101e565b73ffffffffffffffffffffffffffffffffffffffff166000809054906101000a900473ffffffffffffffffffffffffffffffffffffffff1673ffffffffffffffffffffffffffffffffffffffff161461096c576040517f08c379a00000000000000000000000000000000000000000000000000000000081526004018080602001828103825260208152602001807f4f776e61626c653a2063616c6c6572206973206e6f7420746865206f776e657281525060200191505060405180910390fd5b600073ffffffffffffffffffffffffffffffffffffffff166000809054906101000a900473ffffffffffffffffffffffffffffffffffffffff1673ffffffffffffffffffffffffffffffffffffffff167f8be0079c531659141344cd1fd0a4f28419497f9722a3daafe3b4186f6b6457e060405160405180910390a360008060006101000a81548173ffffffffffffffffffffffffffffffffffffffff021916908373ffffffffffffffffffffffffffffffffffffffff160217905550565b60008060009054906101000a900473ffffffffffffffffffffffffffffffffffffffff16905090565b610a5c61101e565b73ffffffffffffffffffffffffffffffffffffffff166000809054906101000a900473ffffffffffffffffffffffffffffffffffffffff1673ffffffffffffffffffffffffffffffffffffffff1614610b1d576040517f08c379a00000000000000000000000000000000000000000000000000000000081526004018080602001828103825260208152602001807f4f776e61626c653a2063616c6c6572206973206e6f7420746865206f776e657281525060200191505060405180910390fd5b8060028190555050565b610b2f61101e565b73ffffffffffffffffffffffffffffffffffffffff166000809054906101000a900473ffffffffffffffffffffffffffffffffffffffff1673ffffffffffffffffffffffffffffffffffffffff1614610bf0576040517f08c379a00000000000000000000000000000000000000000000000000000000081526004018080602001828103825260208152602001807f4f776e61626c653a2063616c6c6572206973206e6f7420746865206f776e657281525060200191505060405180910390fd5b600073ffffffffffffffffffffffffffffffffffffffff168173ffffffffffffffffffffffffffffffffffffffff161415610c76576040517f08c379a00000000000000000000000000000000000000000000000000000000081526004018080602001828103825260268152602001806110cc6026913960400191505060405180910390fd5b8073ffffffffffffffffffffffffffffffffffffffff166000809054906101000a900473ffffffffffffffffffffffffffffffffffffffff1673ffffffffffffffffffffffffffffffffffffffff167f8be0079c531659141344cd1fd0a4f28419497f9722a3daafe3b4186f6b6457e060405160405180910390a3806000806101000a81548173ffffffffffffffffffffffffffffffffffffffff021916908373ffffffffffffffffffffffffffffffffffffffff16021790555050565b6000600380549050905090565b600080600190506000600290505b60058111610d81576000818581610d6257fe5b061415610d76578091508192505050610d87565b600181019050610d4f565b81925050505b919050565b60036040518060c001604052808581526020018463ffffffff1681526020016001805402420163ffffffff168152602001600a61ffff1681526020018360ff168152602001600160ff1681525090806001815401808255809150506001900390600052602060002090600202016000909190919091506000820151816000019080519060200190610e1e929190611026565b5060208201518160010160006101000a81548163ffffffff021916908363ffffffff16021790555060408201518160010160046101000a81548163ffffffff021916908363ffffffff16021790555060608201518160010160086101000a81548161ffff021916908361ffff160217905550608082015181600101600a6101000a81548160ff021916908360ff16021790555060a082015181600101600b6101000a81548160ff021916908360ff1602179055505050336004600084815260200190815260200160002060006101000a81548173ffffffffffffffffffffffffffffffffffffffff021916908373ffffffffffffffffffffffffffffffffffffffff160217905550600560003373ffffffffffffffffffffffffffffffffffffffff1673ffffffffffffffffffffffffffffffffffffffff168152602001908152602001600020600081548092919060010191905055507fb2cc49945bea72b6811d37f5e26d35729c98174502e86396a444b73b54f00a7b83836040518080602001838152602001828103825284818151815260200191508051906020019080838360005b83811015610fde578082015181840152602081019050610fc3565b50505050905090810190601f16801561100b5780820380516001836020036101000a031916815260200191505b50935050505060405180910390a1505050565b600033905090565b828054600181600116156101000203166002900490600052602060002090601f016020900481019282601f1061106757805160ff1916838001178555611095565b82800160010185558215611095579182015b82811115611094578251825591602001919060010190611079565b5b5090506110a291906110a6565b5090565b6110c891905b808211156110c45760008160009055506001016110ac565b5090565b9056fe4f776e61626c653a206e6577206f776e657220697320746865207a65726f2061646472657373a264697066735822122066ed9db6a0d650770375b8be4f63e2a3730bcd1ab340e4690593fb553c9035cd64736f6c63430006020033",
  "source": "pragma solidity >0.6.0;\r\n\r\nimport \"@openzeppelin/contracts/access/Ownable.sol\";\r\n\r\ncontract Characters is Ownable {\r\n    \r\n    event NewCharacter(string name, uint id);\r\n    \r\n    uint cooldownTime = 5 minutes;\r\n    uint creationFee = 0.005 ether; //attualmente equivale a 1 euro\r\n    \r\n    struct Character {\r\n        string name;\r\n        uint32 id;\r\n        uint32 readyTime;\r\n        uint16 xp;\r\n        uint8 rarity;\r\n        uint8 level; \r\n    }\r\n    \r\n    Character[] public book; //raccolta di tutti i personaggi creati \r\n    \r\n    //contiene l'associazione (id personaggio) - (indirizzo proprietario) \r\n    mapping (uint => address) public characterToOwner;\r\n    \r\n    //contiene l'associazione (indirizzo giocatore) - (numero di personaggi posseduti)\r\n    mapping (address => uint) ownerCharacterCount;\r\n    \r\n    ///@dev         funzione che restituisce la lunghezza dell'array dinamico \"book\"\r\n    function _getArrayLength() private view returns(uint) {\r\n        return book.length;\r\n    }\r\n    \r\n    ///@dev          funzione che genera casualmente la rarità del personaggio \r\n    ///@param _id    l'id univoco del personaggio\r\n    ///@return rare  il valore che determina la rarità del personaggio\r\n    function _generateRarity(uint _id) private pure returns(uint) {\r\n        uint rare = 1;\r\n        uint count = 2;\r\n        \r\n        while(count<=5) {\r\n            if(_id % count == 0){\r\n                rare = count;\r\n                return rare;\r\n            }\r\n            count += 1; \r\n        }\r\n        \r\n        return rare;\r\n    }\r\n    \r\n    ///@dev             la funzione inizializza gli attributi del personaggio \r\n    ///@param _name     il nome che il giocatore sceglie per il proprio personaggio\r\n    ///@param _id       l'id univoco del personaggio\r\n    ///@param _rarity   il valore che determina la rarità del personaggio\r\n    function _createNewCharacter(string memory _name, uint _id, uint _rarity) private {\r\n        book.push(Character(_name, uint32(_id), uint32(now + cooldownTime * 1), 10, uint8(_rarity), 1));\r\n        characterToOwner[_id] = msg.sender; //associa l'id del personaggio all'indirizzo con cui è stato creato \r\n        ownerCharacterCount[msg.sender]++; //aumenta la quantità di personaggi in possesso per un tale indirizzo\r\n        emit NewCharacter(_name, _id);\r\n    }\r\n    \r\n    ///@dev             funzione che permette al giocatore di creare un personaggio a partire da due personaggi in suo possesso\r\n    ///@param _name     il nome che il giocatore sceglie per il proprio per il proprio personaggio\r\n    ///@param _firstId  l'id del primo personaggio scelto per il breeding \r\n    ///@param _secondId l'id del secondo personaggio scelto per il breeding\r\n    function _createCharacterFromBreeding(string memory _name, uint _firstId, uint _secondId) internal {\r\n        uint idCharacter = _getArrayLength();\r\n        \r\n        if(idCharacter % (_firstId + _secondId) == 0){\r\n            _createNewCharacter(_name, idCharacter, 5);\r\n        }else{\r\n            _createNewCharacter(_name, idCharacter, _generateRarity(idCharacter));\r\n        }\r\n    }\r\n    \r\n    ///@dev             funzione che permette al giocatore di creare un personaggio\r\n    ///@dev             NOTA: questa funzione può essere chiamata solo due volte (sono necessari almeno due personaggi per poter usare tutte le funzioni)\r\n    ///@param _name     il nome che il giocatore sceglie per il proprio personaggio\r\n    function createRandomCharacter(string calldata _name) external payable {\r\n        require(ownerCharacterCount[msg.sender] < 2);\r\n        require(msg.value == creationFee);\r\n        uint idCharacter = _getArrayLength();\r\n        _createNewCharacter(_name, idCharacter, _generateRarity(idCharacter));\r\n    }\r\n    \r\n    ///@dev     funzione che permette al proprietario del contratto di trasferire i fondi depositati dai giocatori al proprio account \r\n    function withdraw() external onlyOwner {\r\n        address payable _owner = address(uint160(owner()));\r\n        _owner.transfer(address(this).balance);\r\n    }\r\n\r\n    ///@dev     funzione che permette al proprietario del contratto di modificare il prezzo per creare un personaggio \r\n    function setCreationFee(uint _fee) external onlyOwner {\r\n        creationFee = _fee;\r\n    }\r\n    \r\n    ///@dev             funzione che permette di visualizzare la lista dei personaggi associati ad un certo indirizzo \r\n    ///@param _owner    l'inidirizzo di un giocatore\r\n    ///@return result   restituisce un array contenente la lista dei personaggi associati ad un indirizzo\r\n    function getCharactersByOwner(address _owner) external view returns(uint[] memory) {\r\n        uint[] memory result = new uint[](ownerCharacterCount[_owner]);\r\n        uint counter = 0;\r\n        for (uint i = 0; i < book.length; i++) {\r\n            if (characterToOwner[i] == _owner) {\r\n                result[counter] = i;\r\n                counter++;\r\n            }\r\n        }\r\n        return result;\r\n    }\r\n\r\n}",
  "sourcePath": "C:\\Users\\giovanna\\Desktop\\UNIBG\\Tesi_Progetto\\TruffleProject\\contracts\\Characters.sol",
  "compiler": {
    "name": "solc",
    "version": "0.6.2+commit.bacdbe57.Emscripten.clang"
  },
  "schemaVersion": "3.1.0",
  "updatedAt": "2020-07-13T09:03:49.180Z",
  "devdoc": {
    "methods": {
      "createRandomCharacter(string)": {
        "details": "funzione che permette al giocatore di creare un personaggioNOTA: questa funzione può essere chiamata solo due volte (sono necessari almeno due personaggi per poter usare tutte le funzioni)",
        "params": {
          "_name": "il nome che il giocatore sceglie per il proprio personaggio"
        }
      },
      "getCharactersByOwner(address)": {
        "details": "funzione che permette di visualizzare la lista dei personaggi associati ad un certo indirizzo ",
        "params": {
          "_owner": "l'inidirizzo di un giocatore"
        },
        "returns": {
          "_0": "result   restituisce un array contenente la lista dei personaggi associati ad un indirizzo"
        }
      },
      "owner()": {
        "details": "Returns the address of the current owner."
      },
      "renounceOwnership()": {
        "details": "Leaves the contract without owner. It will not be possible to call `onlyOwner` functions anymore. Can only be called by the current owner.     * NOTE: Renouncing ownership will leave the contract without an owner, thereby removing any functionality that is only available to the owner."
      },
      "setCreationFee(uint256)": {
        "details": "funzione che permette al proprietario del contratto di modificare il prezzo per creare un personaggio "
      },
      "transferOwnership(address)": {
        "details": "Transfers ownership of the contract to a new account (`newOwner`). Can only be called by the current owner."
      },
      "withdraw()": {
        "details": "funzione che permette al proprietario del contratto di trasferire i fondi depositati dai giocatori al proprio account "
      }
    }
  },
  "userdoc": {
    "methods": {}
  }
}