{
  "contractName": "Laboratory",
  "abi": [
    {
      "anonymous": false,
      "inputs": [
        {
          "indexed": false,
          "internalType": "uint256",
          "name": "idCharacter",
          "type": "uint256"
        },
        {
          "indexed": false,
          "internalType": "uint256",
          "name": "level",
          "type": "uint256"
        },
        {
          "indexed": false,
          "internalType": "uint256",
          "name": "xp",
          "type": "uint256"
        }
      ],
      "name": "LevelUp",
      "type": "event"
    },
    {
      "anonymous": false,
      "inputs": [
        {
          "indexed": false,
          "internalType": "string",
          "name": "name",
          "type": "string"
        },
        {
          "indexed": false,
          "internalType": "uint256",
          "name": "id",
          "type": "uint256"
        },
        {
          "indexed": false,
          "internalType": "uint256",
          "name": "xp",
          "type": "uint256"
        },
        {
          "indexed": false,
          "internalType": "uint256",
          "name": "rarity",
          "type": "uint256"
        },
        {
          "indexed": false,
          "internalType": "uint256",
          "name": "level",
          "type": "uint256"
        }
      ],
      "name": "NewCharacter",
      "type": "event"
    },
    {
      "anonymous": false,
      "inputs": [
        {
          "indexed": true,
          "internalType": "address",
          "name": "previousOwner",
          "type": "address"
        },
        {
          "indexed": true,
          "internalType": "address",
          "name": "newOwner",
          "type": "address"
        }
      ],
      "name": "OwnershipTransferred",
      "type": "event"
    },
    {
      "inputs": [
        {
          "internalType": "uint256",
          "name": "",
          "type": "uint256"
        }
      ],
      "name": "book",
      "outputs": [
        {
          "internalType": "string",
          "name": "name",
          "type": "string"
        },
        {
          "internalType": "uint32",
          "name": "id",
          "type": "uint32"
        },
        {
          "internalType": "uint32",
          "name": "readyTime",
          "type": "uint32"
        },
        {
          "internalType": "uint16",
          "name": "xp",
          "type": "uint16"
        },
        {
          "internalType": "uint8",
          "name": "rarity",
          "type": "uint8"
        },
        {
          "internalType": "uint8",
          "name": "level",
          "type": "uint8"
        }
      ],
      "stateMutability": "view",
      "type": "function"
    },
    {
      "inputs": [
        {
          "internalType": "uint256",
          "name": "",
          "type": "uint256"
        }
      ],
      "name": "characterToOwner",
      "outputs": [
        {
          "internalType": "address",
          "name": "",
          "type": "address"
        }
      ],
      "stateMutability": "view",
      "type": "function"
    },
    {
      "inputs": [
        {
          "internalType": "string",
          "name": "_name",
          "type": "string"
        }
      ],
      "name": "createRandomCharacter",
      "outputs": [],
      "stateMutability": "payable",
      "type": "function"
    },
    {
      "inputs": [
        {
          "internalType": "address",
          "name": "_owner",
          "type": "address"
        }
      ],
      "name": "getCharactersByOwner",
      "outputs": [
        {
          "internalType": "uint256[]",
          "name": "",
          "type": "uint256[]"
        }
      ],
      "stateMutability": "view",
      "type": "function"
    },
    {
      "inputs": [],
      "name": "kill",
      "outputs": [],
      "stateMutability": "nonpayable",
      "type": "function"
    },
    {
      "inputs": [],
      "name": "owner",
      "outputs": [
        {
          "internalType": "address",
          "name": "",
          "type": "address"
        }
      ],
      "stateMutability": "view",
      "type": "function"
    },
    {
      "inputs": [],
      "name": "renounceOwnership",
      "outputs": [],
      "stateMutability": "nonpayable",
      "type": "function"
    },
    {
      "inputs": [
        {
          "internalType": "uint256",
          "name": "_fee",
          "type": "uint256"
        }
      ],
      "name": "setCreationFee",
      "outputs": [],
      "stateMutability": "nonpayable",
      "type": "function"
    },
    {
      "inputs": [
        {
          "internalType": "address",
          "name": "newOwner",
          "type": "address"
        }
      ],
      "name": "transferOwnership",
      "outputs": [],
      "stateMutability": "nonpayable",
      "type": "function"
    },
    {
      "inputs": [],
      "name": "withdraw",
      "outputs": [],
      "stateMutability": "nonpayable",
      "type": "function"
    },
    {
      "inputs": [
        {
          "internalType": "uint256",
          "name": "_idCharacter",
          "type": "uint256"
        }
      ],
      "name": "upgradeCharacter",
      "outputs": [],
      "stateMutability": "nonpayable",
      "type": "function"
    },
    {
      "inputs": [
        {
          "internalType": "uint256",
          "name": "_idCharacter",
          "type": "uint256"
        },
        {
          "internalType": "uint256",
          "name": "_xp",
          "type": "uint256"
        }
      ],
      "name": "changeXp",
      "outputs": [],
      "stateMutability": "nonpayable",
      "type": "function"
    }
  ],
  "bytecode": "0x608060405261012c6001556611c37937e0800060025560006100256100c860201b60201c565b9050806000806101000a81548173ffffffffffffffffffffffffffffffffffffffff021916908373ffffffffffffffffffffffffffffffffffffffff1602179055508073ffffffffffffffffffffffffffffffffffffffff16600073ffffffffffffffffffffffffffffffffffffffff167f8be0079c531659141344cd1fd0a4f28419497f9722a3daafe3b4186f6b6457e060405160405180910390a3506100d0565b600033905090565b6116be806100df6000396000f3fe6080604052600436106100a75760003560e01c806365e5a94b1161006457806365e5a94b14610316578063715018a6146103bc5780638da5cb5b146103d3578063b7d862251461042a578063cf3df52714610465578063f2fde38b146104a0576100a7565b80631116fd04146100ac57806319e7ce8b146101af5780633be5c2961461022a5780633ccfd60b146102a35780633f123288146102ba57806341c0e1b5146102ff575b600080fd5b3480156100b857600080fd5b506100e5600480360360208110156100cf57600080fd5b81019080803590602001909291905050506104f1565b60405180806020018763ffffffff1663ffffffff1681526020018663ffffffff1663ffffffff1681526020018561ffff1661ffff1681526020018460ff1660ff1681526020018360ff1660ff168152602001828103825288818151815260200191508051906020019080838360005b8381101561016f578082015181840152602081019050610154565b50505050905090810190601f16801561019c5780820380516001836020036101000a031916815260200191505b5097505050505050505060405180910390f35b3480156101bb57600080fd5b506101e8600480360360208110156101d257600080fd5b810190808035906020019092919050505061061a565b604051808273ffffffffffffffffffffffffffffffffffffffff1673ffffffffffffffffffffffffffffffffffffffff16815260200191505060405180910390f35b6102a16004803603602081101561024057600080fd5b810190808035906020019064010000000081111561025d57600080fd5b82018360208201111561026f57600080fd5b8035906020019184600183028401116401000000008311171561029157600080fd5b909192939192939050505061064d565b005b3480156102af57600080fd5b506102b861070f565b005b3480156102c657600080fd5b506102fd600480360360408110156102dd57600080fd5b81019080803590602001909291908035906020019092919050505061082e565b005b34801561030b57600080fd5b5061031461094d565b005b34801561032257600080fd5b506103656004803603602081101561033957600080fd5b81019080803573ffffffffffffffffffffffffffffffffffffffff169060200190929190505050610a3b565b6040518080602001828103825283818151815260200191508051906020019060200280838360005b838110156103a857808201518184015260208101905061038d565b505050509050019250505060405180910390f35b3480156103c857600080fd5b506103d1610b68565b005b3480156103df57600080fd5b506103e8610cf0565b604051808273ffffffffffffffffffffffffffffffffffffffff1673ffffffffffffffffffffffffffffffffffffffff16815260200191505060405180910390f35b34801561043657600080fd5b506104636004803603602081101561044d57600080fd5b8101908080359060200190929190505050610d19565b005b34801561047157600080fd5b5061049e6004803603602081101561048857600080fd5b8101908080359060200190929190505050610dec565b005b3480156104ac57600080fd5b506104ef600480360360208110156104c357600080fd5b81019080803573ffffffffffffffffffffffffffffffffffffffff169060200190929190505050611009565b005b600381815481106104fe57fe5b9060005260206000209060020201600091509050806000018054600181600116156101000203166002900480601f0160208091040260200160405190810160405280929190818152602001828054600181600116156101000203166002900480156105aa5780601f1061057f576101008083540402835291602001916105aa565b820191906000526020600020905b81548152906001019060200180831161058d57829003601f168201915b5050505050908060010160009054906101000a900463ffffffff16908060010160049054906101000a900463ffffffff16908060010160089054906101000a900461ffff169080600101600a9054906101000a900460ff169080600101600b9054906101000a900460ff16905086565b60046020528060005260406000206000915054906101000a900473ffffffffffffffffffffffffffffffffffffffff1681565b6002600560003373ffffffffffffffffffffffffffffffffffffffff1673ffffffffffffffffffffffffffffffffffffffff168152602001908152602001600020541061069957600080fd5b60025434146106a757600080fd5b60006106b1611216565b905061070a83838080601f016020809104026020016040519081016040528093929190818152602001838380828437600081840152601f19601f820116905080830192505050505050508261070584611223565b61126e565b505050565b61071761151a565b73ffffffffffffffffffffffffffffffffffffffff166000809054906101000a900473ffffffffffffffffffffffffffffffffffffffff1673ffffffffffffffffffffffffffffffffffffffff16146107d8576040517f08c379a00000000000000000000000000000000000000000000000000000000081526004018080602001828103825260208152602001807f4f776e61626c653a2063616c6c6572206973206e6f7420746865206f776e657281525060200191505060405180910390fd5b60006107e2610cf0565b90508073ffffffffffffffffffffffffffffffffffffffff166108fc479081150290604051600060405180830381858888f1935050505015801561082a573d6000803e3d6000fd5b5050565b61083661151a565b73ffffffffffffffffffffffffffffffffffffffff166000809054906101000a900473ffffffffffffffffffffffffffffffffffffffff1673ffffffffffffffffffffffffffffffffffffffff16146108f7576040517f08c379a00000000000000000000000000000000000000000000000000000000081526004018080602001828103825260208152602001807f4f776e61626c653a2063616c6c6572206973206e6f7420746865206f776e657281525060200191505060405180910390fd5b60006003838154811061090657fe5b90600052602060002090600202019050818160010160088282829054906101000a900461ffff160192506101000a81548161ffff021916908361ffff160217905550505050565b61095561151a565b73ffffffffffffffffffffffffffffffffffffffff166000809054906101000a900473ffffffffffffffffffffffffffffffffffffffff1673ffffffffffffffffffffffffffffffffffffffff1614610a16576040517f08c379a00000000000000000000000000000000000000000000000000000000081526004018080602001828103825260208152602001807f4f776e61626c653a2063616c6c6572206973206e6f7420746865206f776e657281525060200191505060405180910390fd5b6000610a20610cf0565b90508073ffffffffffffffffffffffffffffffffffffffff16ff5b606080600560008473ffffffffffffffffffffffffffffffffffffffff1673ffffffffffffffffffffffffffffffffffffffff16815260200190815260200160002054604051908082528060200260200182016040528015610aac5781602001602082028038833980820191505090505b509050600080905060008090505b600380549050811015610b5d578473ffffffffffffffffffffffffffffffffffffffff166004600083815260200190815260200160002060009054906101000a900473ffffffffffffffffffffffffffffffffffffffff1673ffffffffffffffffffffffffffffffffffffffff161415610b505780838381518110610b3b57fe5b60200260200101818152505081806001019250505b8080600101915050610aba565b508192505050919050565b610b7061151a565b73ffffffffffffffffffffffffffffffffffffffff166000809054906101000a900473ffffffffffffffffffffffffffffffffffffffff1673ffffffffffffffffffffffffffffffffffffffff1614610c31576040517f08c379a00000000000000000000000000000000000000000000000000000000081526004018080602001828103825260208152602001807f4f776e61626c653a2063616c6c6572206973206e6f7420746865206f776e657281525060200191505060405180910390fd5b600073ffffffffffffffffffffffffffffffffffffffff166000809054906101000a900473ffffffffffffffffffffffffffffffffffffffff1673ffffffffffffffffffffffffffffffffffffffff167f8be0079c531659141344cd1fd0a4f28419497f9722a3daafe3b4186f6b6457e060405160405180910390a360008060006101000a81548173ffffffffffffffffffffffffffffffffffffffff021916908373ffffffffffffffffffffffffffffffffffffffff160217905550565b60008060009054906101000a900473ffffffffffffffffffffffffffffffffffffffff16905090565b610d2161151a565b73ffffffffffffffffffffffffffffffffffffffff166000809054906101000a900473ffffffffffffffffffffffffffffffffffffffff1673ffffffffffffffffffffffffffffffffffffffff1614610de2576040517f08c379a00000000000000000000000000000000000000000000000000000000081526004018080602001828103825260208152602001807f4f776e61626c653a2063616c6c6572206973206e6f7420746865206f776e657281525060200191505060405180910390fd5b8060028190555050565b6014818160038281548110610dfd57fe5b9060005260206000209060020201600101600b9054906101000a900460ff1660ff1610610e2957600080fd5b6004600084815260200190815260200160002060009054906101000a900473ffffffffffffffffffffffffffffffffffffffff1673ffffffffffffffffffffffffffffffffffffffff163373ffffffffffffffffffffffffffffffffffffffff1614610e9457600080fd5b600060038481548110610ea357fe5b90600052602060002090600202019050610ebc81611522565b610ec557600080fd5b60006005905081600101600b9054906101000a900460ff1660ff166105dc0261ffff168260010160089054906101000a900461ffff1661ffff161115610f395781600101600b9054906101000a900460ff1660ff166105dc028260010160089054906101000a900461ffff160361ffff1690505b600182600101600b8282829054906101000a900460ff160192506101000a81548160ff021916908360ff160217905550808260010160086101000a81548161ffff021916908361ffff1602179055507f66833f6d7d7a01eaed9fb21eb9cc54f0fb9497fa9251a6c0773372c8d3e0aa0c8583600101600b9054906101000a900460ff168460010160089054906101000a900461ffff16604051808481526020018360ff1681526020018261ffff168152602001935050505060405180910390a161100282611561565b5050505050565b61101161151a565b73ffffffffffffffffffffffffffffffffffffffff166000809054906101000a900473ffffffffffffffffffffffffffffffffffffffff1673ffffffffffffffffffffffffffffffffffffffff16146110d2576040517f08c379a00000000000000000000000000000000000000000000000000000000081526004018080602001828103825260208152602001807f4f776e61626c653a2063616c6c6572206973206e6f7420746865206f776e657281525060200191505060405180910390fd5b600073ffffffffffffffffffffffffffffffffffffffff168173ffffffffffffffffffffffffffffffffffffffff161415611158576040517f08c379a00000000000000000000000000000000000000000000000000000000081526004018080602001828103825260268152602001806116636026913960400191505060405180910390fd5b8073ffffffffffffffffffffffffffffffffffffffff166000809054906101000a900473ffffffffffffffffffffffffffffffffffffffff1673ffffffffffffffffffffffffffffffffffffffff167f8be0079c531659141344cd1fd0a4f28419497f9722a3daafe3b4186f6b6457e060405160405180910390a3806000806101000a81548173ffffffffffffffffffffffffffffffffffffffff021916908373ffffffffffffffffffffffffffffffffffffffff16021790555050565b6000600380549050905090565b600080600190506000600290505b6005811161126357600081858161124457fe5b061415611258578091508192505050611269565b600181019050611231565b81925050505b919050565b60036040518060c001604052808581526020018463ffffffff1681526020016001805402420163ffffffff168152602001600a61ffff1681526020018360ff168152602001600160ff16815250908060018154018082558091505060019003906000526020600020906002020160009091909190915060008201518160000190805190602001906113009291906115bd565b5060208201518160010160006101000a81548163ffffffff021916908363ffffffff16021790555060408201518160010160046101000a81548163ffffffff021916908363ffffffff16021790555060608201518160010160086101000a81548161ffff021916908361ffff160217905550608082015181600101600a6101000a81548160ff021916908360ff16021790555060a082015181600101600b6101000a81548160ff021916908360ff1602179055505050336004600084815260200190815260200160002060006101000a81548173ffffffffffffffffffffffffffffffffffffffff021916908373ffffffffffffffffffffffffffffffffffffffff160217905550600560003373ffffffffffffffffffffffffffffffffffffffff1673ffffffffffffffffffffffffffffffffffffffff168152602001908152602001600020600081548092919060010191905055507f018fa0067dfca489f2f0a0203a5852cd777aec0a2b4b86f62b87478e2cffc0788383600a8460016040518080602001868152602001858152602001848152602001838152602001828103825287818151815260200191508051906020019080838360005b838110156114d75780820151818401526020810190506114bc565b50505050905090810190601f1680156115045780820380516001836020036101000a031916815260200191505b50965050505050505060405180910390a1505050565b600033905090565b600081600101600b9054906101000a900460ff1660ff166105dc0261ffff168260010160089054906101000a900461ffff1661ffff1610159050919050565b6000611c20905081600101600b9054906101000a900460ff1660ff1682600101600a9054906101000a900460ff1660ff1682020242018260010160046101000a81548163ffffffff021916908363ffffffff1602179055505050565b828054600181600116156101000203166002900490600052602060002090601f016020900481019282601f106115fe57805160ff191683800117855561162c565b8280016001018555821561162c579182015b8281111561162b578251825591602001919060010190611610565b5b509050611639919061163d565b5090565b61165f91905b8082111561165b576000816000905550600101611643565b5090565b9056fe4f776e61626c653a206e6577206f776e657220697320746865207a65726f2061646472657373a26469706673582212208a78c17b563d474dea9be41347ecdd331331e6e5708d97549125f99592ce8a1964736f6c63430006020033",
  "source": "pragma solidity >0.6.0;\r\n\r\nimport \"./Characters.sol\";\r\n\r\ncontract Laboratory is Characters {\r\n    \r\n    event LevelUp(uint idCharacter, uint level, uint xp);\r\n\r\n    modifier checkLevel(uint _level, uint _id) {\r\n        require(book[_id].level < _level);\r\n        _;\r\n    }\r\n    \r\n    ///@dev                 funzione che controlla se il personaggio ha abbastanza xp per essere promosso al livello superiore\r\n    ///@param _character    il riferimento al personaggio\r\n    function _hasEnoughXp(Character storage _character) private view returns (bool){\r\n        return (_character.xp >= 1500 * _character.level);\r\n    }\r\n    \r\n    ///@dev                 funzione che imposta il tempo necessario per l'evoluzione\r\n    ///@param _character    il riferimento al personaggio\r\n    function _evolutionTime(Character storage _character) private {\r\n        uint time = 2 hours;\r\n        _character.readyTime = uint32(now + time * _character.rarity * _character.level);\r\n    }\r\n    \r\n    ///@dev                 funzione che permette di promuovere un personaggio al livello successivo\r\n    ///@param _idCharacter  l'id del personaggio da promuovere\r\n    function upgradeCharacter(uint _idCharacter) public checkLevel(20, _idCharacter) {\r\n        require(msg.sender == characterToOwner[_idCharacter]);\r\n        Character storage char = book[_idCharacter];\r\n        require(_hasEnoughXp(char));\r\n        \r\n        uint xp_nuovi = 5;\r\n        \r\n        if(char.xp > 1500 * char.level){\r\n            xp_nuovi = char.xp - 1500 * char.level;\r\n        }\r\n        \r\n        char.level += 1; \r\n        char.xp = uint16(xp_nuovi);\r\n\r\n        emit LevelUp(_idCharacter, char.level, char.xp);\r\n        \r\n        _evolutionTime(char);\r\n    }\r\n\r\n    ///@dev funzione per la parte di test \r\n    function changeXp(uint _idCharacter, uint _xp) public onlyOwner {\r\n        Character storage char = book[_idCharacter];\r\n        char.xp += uint16(_xp); \r\n    }\r\n}",
  "sourcePath": "C:\\Users\\giovanna\\Desktop\\UNIBG\\Tesi_Progetto\\TruffleProject\\contracts\\Laboratory.sol",
  "compiler": {
    "name": "solc",
    "version": "0.6.2+commit.bacdbe57.Emscripten.clang"
  },
  "schemaVersion": "3.1.0",
  "updatedAt": "2020-07-21T15:00:47.351Z",
  "devdoc": {
    "methods": {
      "changeXp(uint256,uint256)": {
        "details": "funzione per la parte di test "
      },
      "createRandomCharacter(string)": {
        "details": "funzione che permette al giocatore di creare un personaggioNOTA: questa funzione pu essere chiamata solo due volte (sono necessari almeno due personaggi per poter usare tutte le funzioni)",
        "params": {
          "_name": "il nome che il giocatore sceglie per il proprio personaggio"
        }
      },
      "getCharactersByOwner(address)": {
        "details": "funzione che permette di visualizzare la lista dei personaggi associati ad un certo indirizzo ",
        "params": {
          "_owner": "l'inidirizzo di un giocatore"
        },
        "returns": {
          "_0": "result   restituisce un array contenente la lista dei personaggi associati ad un indirizzo"
        }
      },
      "owner()": {
        "details": "Returns the address of the current owner."
      },
      "renounceOwnership()": {
        "details": "Leaves the contract without owner. It will not be possible to call `onlyOwner` functions anymore. Can only be called by the current owner.     * NOTE: Renouncing ownership will leave the contract without an owner, thereby removing any functionality that is only available to the owner."
      },
      "setCreationFee(uint256)": {
        "details": "funzione che permette al proprietario del contratto di modificare il prezzo per creare un personaggio "
      },
      "transferOwnership(address)": {
        "details": "Transfers ownership of the contract to a new account (`newOwner`). Can only be called by the current owner."
      },
      "upgradeCharacter(uint256)": {
        "details": "funzione che permette di promuovere un personaggio al livello successivo",
        "params": {
          "_idCharacter": "l'id del personaggio da promuovere"
        }
      },
      "withdraw()": {
        "details": "funzione che permette al proprietario del contratto di trasferire i fondi depositati dai giocatori al proprio account "
      }
    }
  },
  "userdoc": {
    "methods": {}
  }
}