{
  "contractName": "MiniGames",
  "abi": [
    {
      "anonymous": false,
      "inputs": [
        {
          "indexed": false,
          "internalType": "uint256",
          "name": "id",
          "type": "uint256"
        },
        {
          "indexed": false,
          "internalType": "uint256",
          "name": "xpTotali",
          "type": "uint256"
        }
      ],
      "name": "BonusGameResult",
      "type": "event"
    },
    {
      "anonymous": false,
      "inputs": [
        {
          "indexed": false,
          "internalType": "uint256",
          "name": "id",
          "type": "uint256"
        },
        {
          "indexed": false,
          "internalType": "uint256",
          "name": "playerGuess",
          "type": "uint256"
        },
        {
          "indexed": false,
          "internalType": "uint256",
          "name": "result",
          "type": "uint256"
        },
        {
          "indexed": false,
          "internalType": "uint256",
          "name": "xpScommessi",
          "type": "uint256"
        },
        {
          "indexed": false,
          "internalType": "uint256",
          "name": "xpTotali",
          "type": "uint256"
        }
      ],
      "name": "GameResults",
      "type": "event"
    },
    {
      "anonymous": false,
      "inputs": [
        {
          "indexed": false,
          "internalType": "string",
          "name": "name",
          "type": "string"
        },
        {
          "indexed": false,
          "internalType": "uint256",
          "name": "id",
          "type": "uint256"
        }
      ],
      "name": "NewCharacter",
      "type": "event"
    },
    {
      "anonymous": false,
      "inputs": [
        {
          "indexed": true,
          "internalType": "address",
          "name": "previousOwner",
          "type": "address"
        },
        {
          "indexed": true,
          "internalType": "address",
          "name": "newOwner",
          "type": "address"
        }
      ],
      "name": "OwnershipTransferred",
      "type": "event"
    },
    {
      "inputs": [
        {
          "internalType": "uint256",
          "name": "",
          "type": "uint256"
        }
      ],
      "name": "book",
      "outputs": [
        {
          "internalType": "string",
          "name": "name",
          "type": "string"
        },
        {
          "internalType": "uint32",
          "name": "id",
          "type": "uint32"
        },
        {
          "internalType": "uint32",
          "name": "readyTime",
          "type": "uint32"
        },
        {
          "internalType": "uint16",
          "name": "xp",
          "type": "uint16"
        },
        {
          "internalType": "uint8",
          "name": "rarity",
          "type": "uint8"
        },
        {
          "internalType": "uint8",
          "name": "level",
          "type": "uint8"
        }
      ],
      "stateMutability": "view",
      "type": "function"
    },
    {
      "inputs": [
        {
          "internalType": "uint256",
          "name": "",
          "type": "uint256"
        }
      ],
      "name": "characterToOwner",
      "outputs": [
        {
          "internalType": "address",
          "name": "",
          "type": "address"
        }
      ],
      "stateMutability": "view",
      "type": "function"
    },
    {
      "inputs": [
        {
          "internalType": "string",
          "name": "_name",
          "type": "string"
        }
      ],
      "name": "createRandomCharacter",
      "outputs": [],
      "stateMutability": "payable",
      "type": "function"
    },
    {
      "inputs": [
        {
          "internalType": "address",
          "name": "_owner",
          "type": "address"
        }
      ],
      "name": "getCharactersByOwner",
      "outputs": [
        {
          "internalType": "uint256[]",
          "name": "",
          "type": "uint256[]"
        }
      ],
      "stateMutability": "view",
      "type": "function"
    },
    {
      "inputs": [],
      "name": "owner",
      "outputs": [
        {
          "internalType": "address",
          "name": "",
          "type": "address"
        }
      ],
      "stateMutability": "view",
      "type": "function"
    },
    {
      "inputs": [],
      "name": "renounceOwnership",
      "outputs": [],
      "stateMutability": "nonpayable",
      "type": "function"
    },
    {
      "inputs": [
        {
          "internalType": "uint256",
          "name": "_fee",
          "type": "uint256"
        }
      ],
      "name": "setCreationFee",
      "outputs": [],
      "stateMutability": "nonpayable",
      "type": "function"
    },
    {
      "inputs": [
        {
          "internalType": "address",
          "name": "newOwner",
          "type": "address"
        }
      ],
      "name": "transferOwnership",
      "outputs": [],
      "stateMutability": "nonpayable",
      "type": "function"
    },
    {
      "inputs": [],
      "name": "withdraw",
      "outputs": [],
      "stateMutability": "nonpayable",
      "type": "function"
    },
    {
      "inputs": [
        {
          "internalType": "uint256",
          "name": "_idCharacter",
          "type": "uint256"
        },
        {
          "internalType": "uint256",
          "name": "_guess",
          "type": "uint256"
        },
        {
          "internalType": "uint256",
          "name": "_xpScommessi",
          "type": "uint256"
        }
      ],
      "name": "sumDice",
      "outputs": [],
      "stateMutability": "nonpayable",
      "type": "function"
    },
    {
      "inputs": [
        {
          "internalType": "uint256",
          "name": "_idCharacter",
          "type": "uint256"
        },
        {
          "internalType": "uint256",
          "name": "_xpScommessi",
          "type": "uint256"
        }
      ],
      "name": "fightDice",
      "outputs": [],
      "stateMutability": "nonpayable",
      "type": "function"
    },
    {
      "inputs": [
        {
          "internalType": "uint256",
          "name": "_idCharacter",
          "type": "uint256"
        },
        {
          "internalType": "uint256",
          "name": "_guess",
          "type": "uint256"
        },
        {
          "internalType": "uint256",
          "name": "_xpScommessi",
          "type": "uint256"
        }
      ],
      "name": "pariDispari",
      "outputs": [],
      "stateMutability": "nonpayable",
      "type": "function"
    },
    {
      "inputs": [
        {
          "internalType": "uint256",
          "name": "_idCharacter",
          "type": "uint256"
        },
        {
          "internalType": "uint256",
          "name": "_guess",
          "type": "uint256"
        },
        {
          "internalType": "uint256",
          "name": "_xpScommessi",
          "type": "uint256"
        }
      ],
      "name": "highLow",
      "outputs": [],
      "stateMutability": "nonpayable",
      "type": "function"
    },
    {
      "inputs": [
        {
          "internalType": "uint256",
          "name": "_idCharacter",
          "type": "uint256"
        }
      ],
      "name": "emergencyGame",
      "outputs": [],
      "stateMutability": "nonpayable",
      "type": "function"
    },
    {
      "inputs": [
        {
          "internalType": "uint256",
          "name": "_firstId",
          "type": "uint256"
        },
        {
          "internalType": "uint256",
          "name": "_secondId",
          "type": "uint256"
        }
      ],
      "name": "xpGiveAway",
      "outputs": [],
      "stateMutability": "nonpayable",
      "type": "function"
    }
  ],
  "bytecode": "0x608060405261012c6001556611c37937e0800060025562093a80600755600061002c6100cf60201b60201c565b9050806000806101000a81548173ffffffffffffffffffffffffffffffffffffffff021916908373ffffffffffffffffffffffffffffffffffffffff1602179055508073ffffffffffffffffffffffffffffffffffffffff16600073ffffffffffffffffffffffffffffffffffffffff167f8be0079c531659141344cd1fd0a4f28419497f9722a3daafe3b4186f6b6457e060405160405180910390a3506100d7565b600033905090565b61220a806100e66000396000f3fe6080604052600436106100e85760003560e01c8063715018a61161008a578063b8f0d2fc11610059578063b8f0d2fc14610523578063de0ef79e14610568578063e135f60c146105ad578063f2fde38b146105fc576100e8565b8063715018a61461042b5780638da5cb5b146104425780638f1e048c14610499578063b7d86225146104e8576100e8565b80631e0e8b04116100c65780631e0e8b04146102ba5780633be5c296146102f55780633ccfd60b1461036e57806365e5a94b14610385576100e8565b80631116fd04146100ed57806315da1501146101f057806319e7ce8b1461023f575b600080fd5b3480156100f957600080fd5b506101266004803603602081101561011057600080fd5b810190808035906020019092919050505061064d565b60405180806020018763ffffffff1663ffffffff1681526020018663ffffffff1663ffffffff1681526020018561ffff1661ffff1681526020018460ff1660ff1681526020018360ff1660ff168152602001828103825288818151815260200191508051906020019080838360005b838110156101b0578082015181840152602081019050610195565b50505050905090810190601f1680156101dd5780820380516001836020036101000a031916815260200191505b5097505050505050505060405180910390f35b3480156101fc57600080fd5b5061023d6004803603606081101561021357600080fd5b81019080803590602001909291908035906020019092919080359060200190929190505050610776565b005b34801561024b57600080fd5b506102786004803603602081101561026257600080fd5b81019080803590602001909291905050506109c2565b604051808273ffffffffffffffffffffffffffffffffffffffff1673ffffffffffffffffffffffffffffffffffffffff16815260200191505060405180910390f35b3480156102c657600080fd5b506102f3600480360360208110156102dd57600080fd5b81019080803590602001909291905050506109f5565b005b61036c6004803603602081101561030b57600080fd5b810190808035906020019064010000000081111561032857600080fd5b82018360208201111561033a57600080fd5b8035906020019184600183028401116401000000008311171561035c57600080fd5b9091929391929390505050610c09565b005b34801561037a57600080fd5b50610383610ccb565b005b34801561039157600080fd5b506103d4600480360360208110156103a857600080fd5b81019080803573ffffffffffffffffffffffffffffffffffffffff169060200190929190505050610dea565b6040518080602001828103825283818151815260200191508051906020019060200280838360005b838110156104175780820151818401526020810190506103fc565b505050509050019250505060405180910390f35b34801561043757600080fd5b50610440610f17565b005b34801561044e57600080fd5b5061045761109f565b604051808273ffffffffffffffffffffffffffffffffffffffff1673ffffffffffffffffffffffffffffffffffffffff16815260200191505060405180910390f35b3480156104a557600080fd5b506104e6600480360360608110156104bc57600080fd5b810190808035906020019092919080359060200190929190803590602001909291905050506110c8565b005b3480156104f457600080fd5b506105216004803603602081101561050b57600080fd5b81019080803590602001909291905050506112e6565b005b34801561052f57600080fd5b506105666004803603604081101561054657600080fd5b8101908080359060200190929190803590602001909291905050506113b9565b005b34801561057457600080fd5b506105ab6004803603604081101561058b57600080fd5b8101908080359060200190929190803590602001909291905050506115a2565b005b3480156105b957600080fd5b506105fa600480360360608110156105d057600080fd5b810190808035906020019092919080359060200190929190803590602001909291905050506117c9565b005b34801561060857600080fd5b5061064b6004803603602081101561061f57600080fd5b81019080803573ffffffffffffffffffffffffffffffffffffffff169060200190929190505050611a0f565b005b6003818154811061065a57fe5b9060005260206000209060020201600091509050806000018054600181600116156101000203166002900480601f0160208091040260200160405190810160405280929190818152602001828054600181600116156101000203166002900480156107065780601f106106db57610100808354040283529160200191610706565b820191906000526020600020905b8154815290600101906020018083116106e957829003601f168201915b5050505050908060010160009054906101000a900463ffffffff16908060010160049054906101000a900463ffffffff16908060010160089054906101000a900461ffff169080600101600a9054906101000a900460ff169080600101600b9054906101000a900460ff16905086565b826004600082815260200190815260200160002060009054906101000a900473ffffffffffffffffffffffffffffffffffffffff1673ffffffffffffffffffffffffffffffffffffffff163373ffffffffffffffffffffffffffffffffffffffff16146107e257600080fd5b6000600385815481106107f157fe5b9060005260206000209060020201905061080b8184611c1c565b600061081684611c9d565b61081f87611c9d565b019050808514156108a257610849600583600101600a9054906101000a900460ff1660ff16611cfd565b61086683600101600b9054906101000a900460ff1660ff16611d1d565b6004860202028260010160088282829054906101000a900461ffff160192506101000a81548161ffff021916908361ffff160217905550610944565b600181038514806108b557506001810185145b156108f457600384028260010160088282829054906101000a900461ffff160192506101000a81548161ffff021916908361ffff160217905550610943565b6002810385148061090757506002810185145b1561094257600284028260010160088282829054906101000a900461ffff160192506101000a81548161ffff021916908361ffff1602179055505b5b5b7fa0dd4ef8b0e3c78049d04b6180a752998d27ae7ef8233ef6ca808d5d198cd48d868683878660010160089054906101000a900461ffff16604051808681526020018581526020018481526020018381526020018261ffff1681526020019550505050505060405180910390a16109ba82611d86565b505050505050565b60046020528060005260406000206000915054906101000a900473ffffffffffffffffffffffffffffffffffffffff1681565b806004600082815260200190815260200160002060009054906101000a900473ffffffffffffffffffffffffffffffffffffffff1673ffffffffffffffffffffffffffffffffffffffff163373ffffffffffffffffffffffffffffffffffffffff1614610a6157600080fd5b600060038381548110610a7057fe5b90600052602060002090600202019050610a8981611dc6565b8015610aab575060008160010160089054906101000a900461ffff1661ffff16145b610ab457600080fd5b600083604051602001808281526020019150506040516020818303038152906040528051906020012060001c905060006101f38281610aef57fe5b061415610b2e5760148260010160088282829054906101000a900461ffff160192506101000a81548161ffff021916908361ffff160217905550610bae565b600060078281610b3a57fe5b061415610b7957600a8260010160088282829054906101000a900461ffff160192506101000a81548161ffff021916908361ffff160217905550610bad565b60058260010160088282829054906101000a900461ffff160192506101000a81548161ffff021916908361ffff1602179055505b5b7fc49e8366ecd1a4b11452b02e6101c5e3f10bc4115bda05f27df6a3a34c970024848360010160089054906101000a900461ffff16604051808381526020018261ffff1681526020019250505060405180910390a150505050565b6002600560003373ffffffffffffffffffffffffffffffffffffffff1673ffffffffffffffffffffffffffffffffffffffff1681526020019081526020016000205410610c5557600080fd5b6002543414610c6357600080fd5b6000610c6d611ded565b9050610cc683838080601f016020809104026020016040519081016040528093929190818152602001838380828437600081840152601f19601f8201169050808301925050505050505082610cc184611dfa565b611e45565b505050565b610cd36120d7565b73ffffffffffffffffffffffffffffffffffffffff166000809054906101000a900473ffffffffffffffffffffffffffffffffffffffff1673ffffffffffffffffffffffffffffffffffffffff1614610d94576040517f08c379a00000000000000000000000000000000000000000000000000000000081526004018080602001828103825260208152602001807f4f776e61626c653a2063616c6c6572206973206e6f7420746865206f776e657281525060200191505060405180910390fd5b6000610d9e61109f565b90508073ffffffffffffffffffffffffffffffffffffffff166108fc479081150290604051600060405180830381858888f19350505050158015610de6573d6000803e3d6000fd5b5050565b606080600560008473ffffffffffffffffffffffffffffffffffffffff1673ffffffffffffffffffffffffffffffffffffffff16815260200190815260200160002054604051908082528060200260200182016040528015610e5b5781602001602082028038833980820191505090505b509050600080905060008090505b600380549050811015610f0c578473ffffffffffffffffffffffffffffffffffffffff166004600083815260200190815260200160002060009054906101000a900473ffffffffffffffffffffffffffffffffffffffff1673ffffffffffffffffffffffffffffffffffffffff161415610eff5780838381518110610eea57fe5b60200260200101818152505081806001019250505b8080600101915050610e69565b508192505050919050565b610f1f6120d7565b73ffffffffffffffffffffffffffffffffffffffff166000809054906101000a900473ffffffffffffffffffffffffffffffffffffffff1673ffffffffffffffffffffffffffffffffffffffff1614610fe0576040517f08c379a00000000000000000000000000000000000000000000000000000000081526004018080602001828103825260208152602001807f4f776e61626c653a2063616c6c6572206973206e6f7420746865206f776e657281525060200191505060405180910390fd5b600073ffffffffffffffffffffffffffffffffffffffff166000809054906101000a900473ffffffffffffffffffffffffffffffffffffffff1673ffffffffffffffffffffffffffffffffffffffff167f8be0079c531659141344cd1fd0a4f28419497f9722a3daafe3b4186f6b6457e060405160405180910390a360008060006101000a81548173ffffffffffffffffffffffffffffffffffffffff021916908373ffffffffffffffffffffffffffffffffffffffff160217905550565b60008060009054906101000a900473ffffffffffffffffffffffffffffffffffffffff16905090565b826004600082815260200190815260200160002060009054906101000a900473ffffffffffffffffffffffffffffffffffffffff1673ffffffffffffffffffffffffffffffffffffffff163373ffffffffffffffffffffffffffffffffffffffff161461113457600080fd5b60006003858154811061114357fe5b9060005260206000209060020201905061115d8184611c1c565b600061116886611c9d565b90506003811115801561117c575060038511155b8061119357506003811180156111925750600385115b5b1561120c576111b7600183600101600a9054906101000a900460ff1660ff16611cfd565b6111d483600101600b9054906101000a900460ff1660ff16611d1d565b6003860202028260010160088282829054906101000a900461ffff160192506101000a81548161ffff021916908361ffff1602179055505b808514156112685761123182600101600b9054906101000a900460ff1660ff16611d1d565b60028502028260010160088282829054906101000a900461ffff160192506101000a81548161ffff021916908361ffff1602179055505b7fa0dd4ef8b0e3c78049d04b6180a752998d27ae7ef8233ef6ca808d5d198cd48d868683878660010160089054906101000a900461ffff16604051808681526020018581526020018481526020018381526020018261ffff1681526020019550505050505060405180910390a16112de82611d86565b505050505050565b6112ee6120d7565b73ffffffffffffffffffffffffffffffffffffffff166000809054906101000a900473ffffffffffffffffffffffffffffffffffffffff1673ffffffffffffffffffffffffffffffffffffffff16146113af576040517f08c379a00000000000000000000000000000000000000000000000000000000081526004018080602001828103825260208152602001807f4f776e61626c653a2063616c6c6572206973206e6f7420746865206f776e657281525060200191505060405180910390fd5b8060028190555050565b816004600082815260200190815260200160002060009054906101000a900473ffffffffffffffffffffffffffffffffffffffff1673ffffffffffffffffffffffffffffffffffffffff163373ffffffffffffffffffffffffffffffffffffffff161461142557600080fd5b60006003848154811061143457fe5b9060005260206000209060020201905061144e8184611c1c565b600061145985611c9d565b9050600061146685611c9d565b9050808211156114e85761148f600384600101600a9054906101000a900460ff1660ff16611cfd565b6114ac84600101600b9054906101000a900460ff1660ff16611d1d565b6002870202028360010160088282829054906101000a900461ffff160192506101000a81548161ffff021916908361ffff160217905550611524565b8082141561152357848360010160088282829054906101000a900461ffff160192506101000a81548161ffff021916908361ffff1602179055505b5b7fa0dd4ef8b0e3c78049d04b6180a752998d27ae7ef8233ef6ca808d5d198cd48d868383888760010160089054906101000a900461ffff16604051808681526020018581526020018481526020018381526020018261ffff1681526020019550505050505060405180910390a161159a83611d86565b505050505050565b816004600082815260200190815260200160002060009054906101000a900473ffffffffffffffffffffffffffffffffffffffff1673ffffffffffffffffffffffffffffffffffffffff163373ffffffffffffffffffffffffffffffffffffffff161461160e57600080fd5b816004600082815260200190815260200160002060009054906101000a900473ffffffffffffffffffffffffffffffffffffffff1673ffffffffffffffffffffffffffffffffffffffff163373ffffffffffffffffffffffffffffffffffffffff161461167a57600080fd5b60006003858154811061168957fe5b906000526020600020906002020190506000600385815481106116a857fe5b906000526020600020906002020190506116c182611dc6565b80156116d257506116d181611dc6565b5b6116db57600080fd5b601482600101600b9054906101000a900460ff1660ff1610806117125750601481600101600b9054906101000a900460ff1660ff16145b61171b57600080fd5b60016064868161172757fe5b06018260010160088282829054906101000a900461ffff160192506101000a81548161ffff021916908361ffff1602179055507fc49e8366ecd1a4b11452b02e6101c5e3f10bc4115bda05f27df6a3a34c970024868360010160089054906101000a900461ffff16604051808381526020018261ffff1681526020019250505060405180910390a16117b8816120df565b6117c182611d86565b505050505050565b826004600082815260200190815260200160002060009054906101000a900473ffffffffffffffffffffffffffffffffffffffff1673ffffffffffffffffffffffffffffffffffffffff163373ffffffffffffffffffffffffffffffffffffffff161461183557600080fd5b60006003858154811061184457fe5b9060005260206000209060020201905061185e8184611c1c565b600061186986611c9d565b905060006002828161187757fe5b0614801561188f575060006002868161188c57fe5b06145b806118ba57506001600282816118a157fe5b061480156118b957506001600286816118b657fe5b06145b5b15611933576118de600283600101600a9054906101000a900460ff1660ff16611cfd565b6118fb83600101600b9054906101000a900460ff1660ff16611d1d565b6002860202028260010160088282829054906101000a900461ffff160192506101000a81548161ffff021916908361ffff1602179055505b808514156119915761195a600283600101600a9054906101000a900460ff1660ff16611cfd565b60028502028260010160088282829054906101000a900461ffff160192506101000a81548161ffff021916908361ffff1602179055505b7fa0dd4ef8b0e3c78049d04b6180a752998d27ae7ef8233ef6ca808d5d198cd48d868683878660010160089054906101000a900461ffff16604051808681526020018581526020018481526020018381526020018261ffff1681526020019550505050505060405180910390a1611a0782611d86565b505050505050565b611a176120d7565b73ffffffffffffffffffffffffffffffffffffffff166000809054906101000a900473ffffffffffffffffffffffffffffffffffffffff1673ffffffffffffffffffffffffffffffffffffffff1614611ad8576040517f08c379a00000000000000000000000000000000000000000000000000000000081526004018080602001828103825260208152602001807f4f776e61626c653a2063616c6c6572206973206e6f7420746865206f776e657281525060200191505060405180910390fd5b600073ffffffffffffffffffffffffffffffffffffffff168173ffffffffffffffffffffffffffffffffffffffff161415611b5e576040517f08c379a00000000000000000000000000000000000000000000000000000000081526004018080602001828103825260268152602001806121af6026913960400191505060405180910390fd5b8073ffffffffffffffffffffffffffffffffffffffff166000809054906101000a900473ffffffffffffffffffffffffffffffffffffffff1673ffffffffffffffffffffffffffffffffffffffff167f8be0079c531659141344cd1fd0a4f28419497f9722a3daafe3b4186f6b6457e060405160405180910390a3806000806101000a81548173ffffffffffffffffffffffffffffffffffffffff021916908373ffffffffffffffffffffffffffffffffffffffff16021790555050565b611c2582611dc6565b8015611c465750808260010160089054906101000a900461ffff1661ffff16115b8015611c5e57506000811180611c5d575060198111155b5b611c6757600080fd5b808260010160088282829054906101000a900461ffff160392506101000a81548161ffff021916908361ffff1602179055505050565b600060016006834260066000815480929190600101919050556040516020018084815260200183815260200182815260200193505050506040516020818303038152906040528051906020012060001c81611cf457fe5b06019050919050565b600081831415611d1257600283029050611d17565b600190505b92915050565b600060058210158015611d305750600a82105b15611d3e5760029050611d81565b600a8210158015611d4f5750600f82105b15611d5d5760039050611d81565b600f8210158015611d6e5750601482105b15611d7c5760049050611d81565b600190505b919050565b80600101600b9054906101000a900460ff1660ff166001540242018160010160046101000a81548163ffffffff021916908363ffffffff16021790555050565b6000428260010160049054906101000a900463ffffffff1663ffffffff1611159050919050565b6000600380549050905090565b600080600190506000600290505b60058111611e3a576000818581611e1b57fe5b061415611e2f578091508192505050611e40565b600181019050611e08565b81925050505b919050565b60036040518060c001604052808581526020018463ffffffff1681526020016001805402420163ffffffff168152602001600a61ffff1681526020018360ff168152602001600160ff1681525090806001815401808255809150506001900390600052602060002090600202016000909190919091506000820151816000019080519060200190611ed7929190612109565b5060208201518160010160006101000a81548163ffffffff021916908363ffffffff16021790555060408201518160010160046101000a81548163ffffffff021916908363ffffffff16021790555060608201518160010160086101000a81548161ffff021916908361ffff160217905550608082015181600101600a6101000a81548160ff021916908360ff16021790555060a082015181600101600b6101000a81548160ff021916908360ff1602179055505050336004600084815260200190815260200160002060006101000a81548173ffffffffffffffffffffffffffffffffffffffff021916908373ffffffffffffffffffffffffffffffffffffffff160217905550600560003373ffffffffffffffffffffffffffffffffffffffff1673ffffffffffffffffffffffffffffffffffffffff168152602001908152602001600020600081548092919060010191905055507fb2cc49945bea72b6811d37f5e26d35729c98174502e86396a444b73b54f00a7b83836040518080602001838152602001828103825284818151815260200191508051906020019080838360005b8381101561209757808201518184015260208101905061207c565b50505050905090810190601f1680156120c45780820380516001836020036101000a031916815260200191505b50935050505060405180910390a1505050565b600033905090565b60075442018160010160046101000a81548163ffffffff021916908363ffffffff16021790555050565b828054600181600116156101000203166002900490600052602060002090601f016020900481019282601f1061214a57805160ff1916838001178555612178565b82800160010185558215612178579182015b8281111561217757825182559160200191906001019061215c565b5b5090506121859190612189565b5090565b6121ab91905b808211156121a757600081600090555060010161218f565b5090565b9056fe4f776e61626c653a206e6577206f776e657220697320746865207a65726f2061646472657373a26469706673582212205b48c6460cbcd568b13aa3051c45b64811eeae64d5388676f81d9f2e6e2a0dd064736f6c63430006020033",
  "source": "pragma solidity >0.6.0;\r\n\r\nimport \"./Characters.sol\";\r\n\r\ncontract MiniGames is Characters {\r\n    \r\n    event GameResults(uint id, uint playerGuess, uint result, uint xpScommessi, uint xpTotali);\r\n    event BonusGameResult(uint id, uint xpTotali);\r\n    \r\n    uint private randomNumber;\r\n    uint restoreTime = 7 days;\r\n    \r\n    ///@dev         controlla che il personaggio che il giocatore vuole utilizzare sia di sua propriet\r\n    ///@param _id   l'id del personaggio \r\n    modifier ownership(uint _id) {\r\n        require(msg.sender == characterToOwner[_id]);\r\n        _;\r\n    }\r\n    \r\n    ///@dev             funzione per settare la variabile randomNumber\r\n    ///@param _number   un numero\r\n    function _setRandomNumber(uint _number) private onlyOwner {\r\n        randomNumber = _number;\r\n    }\r\n\r\n    ///@dev                 funzione che controlla che il personaggio sia pronto all'utilizzo \r\n    ///@param _character    il puntatore al personaggio\r\n    function _isReady(Character storage _character) private view returns (bool) {\r\n        return (_character.readyTime <= now);\r\n    }\r\n    \r\n    ///@dev                 funzione che imposta il tempo di ripresa del personaggio dopo essere stato utilizzato \r\n    ///@param _character    il puntatore al personaggio\r\n    function _triggerCooldown(Character storage _character) private {\r\n        _character.readyTime = uint32(now + cooldownTime * _character.level);\r\n    }\r\n    \r\n    ///@dev                 funzione che imposta il tempo di ripresa di un personaggio di livello 20 dopo essere stato utilizzato \r\n    ///@param _character    il puntatore al personaggio\r\n    function _triggerCooldownLevelTwenty(Character storage _character) private {\r\n        _character.readyTime = uint32(now + restoreTime);\r\n    }\r\n\r\n    ///@dev                 funzione che controlla il personaggio prima del gioco  \r\n    ///@param _character    il puntatore al personaggio\r\n    ///@param _xpScommessi  numero di xp scommessi dal giocatore\r\n    function _characterCheck(Character storage _character, uint _xpScommessi) private {\r\n        require(_isReady(_character) && (_character.xp > _xpScommessi) && (_xpScommessi > 0 || _xpScommessi <= 25));\r\n        _character.xp -= uint16(_xpScommessi);\r\n    }\r\n    \r\n    ///@dev             funzione che assegna un moltiplicatore extra (in caso di vincita) a seconda del livello\r\n    ///@param _level    livello del personaggio\r\n    function _bonusXp(uint _level) private pure returns (uint) {\r\n        if(_level >= 5 && _level < 10){\r\n            return 2;\r\n        }else if(_level >= 10 && _level < 15) {\r\n            return 3;\r\n        }else if(_level >= 15 && _level <20) {\r\n            return 4;\r\n        }else{\r\n            return 1;\r\n        }\r\n    }\r\n    \r\n    ///@dev                     funzione che determina un moltiplicatore extra (in caso di vincita) a seconda della rarit\r\n    ///@param _rarity           parametro fisso che indica una specifica rarit\r\n    ///@param _characterRarity  rarit del personaggio scelto dal giocatore\r\n    function _bonusRarity(uint _rarity, uint _characterRarity) private pure returns (uint) {\r\n        if(_rarity == _characterRarity){\r\n            return _rarity * 2;\r\n        }else{\r\n            return 1;\r\n        }\r\n    }\r\n    \r\n    ///@dev         funzione che genera un dado pseudocasuale \r\n    ///@param _str  un valore che contribuisce alla creazione del dado\r\n    function _generateRandomDice(uint _str) private returns (uint) {\r\n        return uint(keccak256(abi.encodePacked(_str, now, randomNumber++))) % 6 + 1;\r\n    }\r\n    \r\n    ///@dev                 il primo gioco prevede che il giocatore debba indovinare la somma di due dadi \r\n    ///                     se viene usato un personaggio di rarit 5 si ottiene un bonus\r\n    ///@param _idCharacter  l'id del personaggio scelto\r\n    ///@param _guess        il risultato della somma secondo il giocatore\r\n    ///@param _xpScommessi  la quantit di xp scommessi dal giocatore\r\n    function sumDice(uint _idCharacter, uint _guess, uint _xpScommessi) public ownership(_idCharacter) {\r\n        Character storage player = book[_idCharacter];\r\n        _characterCheck(player, _xpScommessi);\r\n        \r\n        uint somma = _generateRandomDice(_idCharacter) + _generateRandomDice(_xpScommessi);\r\n        \r\n        if(_guess == somma){\r\n            player.xp += uint16(_xpScommessi * 4 * _bonusXp(player.level) * _bonusRarity(5, player.rarity));\r\n        }else if(_guess == somma - 1 || _guess == somma + 1) {\r\n            player.xp +=uint16(_xpScommessi * 3);\r\n        }else if(_guess == somma - 2 || _guess == somma + 2) {\r\n            player.xp +=uint16(_xpScommessi * 2);\r\n        }\r\n        \r\n        emit GameResults(_idCharacter, _guess, somma, _xpScommessi, player.xp);\r\n        \r\n        _triggerCooldown(player);\r\n    }\r\n    \r\n    ///@dev                 il gioco prevede che vengano generati due dadi: uno viene assegnato al giocatore mentre l'altro all'avversario (computer). \r\n    ///                     Vince il numero pi alto\r\n    ///                     se viene usato un personaggio di rarit 3 si ottiene un bonus\r\n    ///@param _idCharacter  l'id del personaggio scelto\r\n    ///@param _xpScommessi  la quantit di xp scommessi dal giocatore\r\n    function fightDice(uint _idCharacter, uint _xpScommessi) public ownership(_idCharacter){\r\n        Character storage player = book[_idCharacter];\r\n        _characterCheck(player, _xpScommessi);\r\n        \r\n        uint player_dice = _generateRandomDice(_idCharacter);\r\n        uint enemy_dice = _generateRandomDice(_xpScommessi);\r\n        \r\n        if(player_dice > enemy_dice){\r\n            player.xp += uint16(_xpScommessi * 2 * _bonusXp(player.level) * _bonusRarity(3, player.rarity));\r\n        }else if (player_dice == enemy_dice){\r\n            player.xp +=uint16(_xpScommessi);\r\n        }\r\n        \r\n        emit GameResults(_idCharacter, player_dice, enemy_dice, _xpScommessi, player.xp);\r\n        \r\n        _triggerCooldown(player);\r\n        \r\n    }\r\n    \r\n    ///@dev                 il giocatore deve indovinare se il dado generato sar pari o dispari \r\n    ///                     se viene usato un personaggio di rarit 2 si ottiene un bonus\r\n    ///@param _idCharacter  l'id del personaggio scelto\r\n    ///@param _guess        il numero del dado che uscir secondo il giocatore \r\n    ///@param _xpScommessi  la quantit di xp scommessi dal giocatore\r\n    function pariDispari(uint _idCharacter, uint _guess, uint _xpScommessi) public ownership(_idCharacter) {\r\n        Character storage player = book[_idCharacter];\r\n        _characterCheck(player, _xpScommessi);\r\n        \r\n        uint dice = _generateRandomDice(_idCharacter);\r\n        \r\n        if((dice % 2 == 0 && _guess % 2 == 0) || (dice % 2 == 1 && _guess % 2 == 1)){\r\n            player.xp += uint16(_xpScommessi * 2 * _bonusXp(player.level) * _bonusRarity(2, player.rarity));\r\n        }\r\n        \r\n        //se indovina anche il numero esatto del dado, ottiene un bonus ulteriore\r\n        if(_guess == dice) {\r\n            player.xp += uint16(_xpScommessi * 2 * _bonusRarity(2, player.rarity));\r\n        }\r\n        \r\n        emit GameResults(_idCharacter, _guess, dice, _xpScommessi, player.xp);\r\n        \r\n        _triggerCooldown(player);\r\n    }\r\n    \r\n    ///@dev                 il giocatore deve indovinare se il dado generato sar maggiore o minore di 3 \r\n    ///                     se viene usato un personaggio di rarit 1 si ottiene un bonus\r\n    ///@param _idCharacter  l'id del personaggio scelto\r\n    ///@param _guess        il numero del dado che uscir secondo il giocatore \r\n    ///@param _xpScommessi  la quantit di xp scommessi dal giocatore\r\n    function highLow(uint _idCharacter, uint _guess, uint _xpScommessi) public ownership(_idCharacter) {\r\n        Character storage player = book[_idCharacter];\r\n        _characterCheck(player, _xpScommessi);\r\n        \r\n        uint dice = _generateRandomDice(_idCharacter);\r\n        \r\n        if((dice <= 3 && _guess <= 3) || (dice > 3 && _guess > 3)){\r\n            player.xp += uint16(_xpScommessi * 3 * _bonusXp(player.level) * _bonusRarity(1, player.rarity));\r\n        }\r\n        \r\n        //se indovina anche il numero esatto del dado, ottiene un bonus ulteriore\r\n        if(_guess == dice) {\r\n            player.xp += uint16(_xpScommessi * 2 * _bonusXp(player.level));\r\n        }\r\n        \r\n        emit GameResults(_idCharacter, _guess, dice, _xpScommessi, player.xp);\r\n        \r\n        _triggerCooldown(player);\r\n    }\r\n    \r\n    ///@dev                 qualora il personaggio dovesse rimanere senza xp, il giocatore potr usare questa funzione per ricaricare il personaggio \r\n    ///@param _idCharacter  l'id del personaggio scelto\r\n    function emergencyGame(uint _idCharacter) public ownership(_idCharacter) {\r\n        Character storage player = book[_idCharacter];\r\n        require(_isReady(player) && player.xp == 0);\r\n        \r\n        uint xps = uint(keccak256(abi.encodePacked(_idCharacter)));\r\n        \r\n        if (xps % 499 == 0){\r\n            player.xp += 20;\r\n        }else if(xps % 7 == 0){\r\n            player.xp += 10;\r\n        }else{\r\n            player.xp += 5;\r\n        }\r\n        \r\n        emit BonusGameResult(_idCharacter, player.xp);\r\n    }\r\n    \r\n    ///@dev                 funzione che permette ad un personaggio di livello 20 di far guadagnare ad un altro personaggio un po' di xp\r\n    ///@param _firstId      l'id del personaggio con un livello minore di 20\r\n    ///@param _secondId     l'id del personaggio di livello 20\r\n    function xpGiveAway(uint _firstId, uint _secondId) public ownership(_firstId) ownership(_secondId) {\r\n        Character storage characterOne = book[_firstId];\r\n        Character storage characterTwo = book[_secondId];\r\n        \r\n        require(_isReady(characterOne) && _isReady(characterTwo));\r\n        require(characterOne.level < 20 || characterTwo.level == 20);\r\n        \r\n        characterOne.xp += uint16(_secondId % 100 + 1);\r\n        \r\n        emit BonusGameResult(_firstId, characterOne.xp);\r\n        \r\n        _triggerCooldownLevelTwenty(characterTwo);\r\n        _triggerCooldown(characterOne);\r\n    }\r\n    \r\n}",
  "sourcePath": "C:\\Users\\giovanna\\Desktop\\UNIBG\\Tesi_Progetto\\TruffleProject\\contracts\\MiniGames.sol",
  "compiler": {
    "name": "solc",
    "version": "0.6.2+commit.bacdbe57.Emscripten.clang"
  },
  "schemaVersion": "3.1.0",
  "updatedAt": "2020-07-13T09:53:08.926Z",
  "devdoc": {
    "methods": {
      "createRandomCharacter(string)": {
        "details": "funzione che permette al giocatore di creare un personaggioNOTA: questa funzione pu essere chiamata solo due volte (sono necessari almeno due personaggi per poter usare tutte le funzioni)",
        "params": {
          "_name": "il nome che il giocatore sceglie per il proprio personaggio"
        }
      },
      "emergencyGame(uint256)": {
        "details": "qualora il personaggio dovesse rimanere senza xp, il giocatore potr usare questa funzione per ricaricare il personaggio ",
        "params": {
          "_idCharacter": "l'id del personaggio scelto"
        }
      },
      "fightDice(uint256,uint256)": {
        "details": "il gioco prevede che vengano generati due dadi: uno viene assegnato al giocatore mentre l'altro all'avversario (computer).                      Vince il numero pi alto                     se viene usato un personaggio di rarit 3 si ottiene un bonus",
        "params": {
          "_idCharacter": "l'id del personaggio scelto",
          "_xpScommessi": "la quantit di xp scommessi dal giocatore"
        }
      },
      "getCharactersByOwner(address)": {
        "details": "funzione che permette di visualizzare la lista dei personaggi associati ad un certo indirizzo ",
        "params": {
          "_owner": "l'inidirizzo di un giocatore"
        },
        "returns": {
          "_0": "result   restituisce un array contenente la lista dei personaggi associati ad un indirizzo"
        }
      },
      "highLow(uint256,uint256,uint256)": {
        "details": "il giocatore deve indovinare se il dado generato sar maggiore o minore di 3                      se viene usato un personaggio di rarit 1 si ottiene un bonus",
        "params": {
          "_guess": "il numero del dado che uscir secondo il giocatore ",
          "_idCharacter": "l'id del personaggio scelto",
          "_xpScommessi": "la quantit di xp scommessi dal giocatore"
        }
      },
      "owner()": {
        "details": "Returns the address of the current owner."
      },
      "pariDispari(uint256,uint256,uint256)": {
        "details": "il giocatore deve indovinare se il dado generato sar pari o dispari                      se viene usato un personaggio di rarit 2 si ottiene un bonus",
        "params": {
          "_guess": "il numero del dado che uscir secondo il giocatore ",
          "_idCharacter": "l'id del personaggio scelto",
          "_xpScommessi": "la quantit di xp scommessi dal giocatore"
        }
      },
      "renounceOwnership()": {
        "details": "Leaves the contract without owner. It will not be possible to call `onlyOwner` functions anymore. Can only be called by the current owner.     * NOTE: Renouncing ownership will leave the contract without an owner, thereby removing any functionality that is only available to the owner."
      },
      "setCreationFee(uint256)": {
        "details": "funzione che permette al proprietario del contratto di modificare il prezzo per creare un personaggio "
      },
      "sumDice(uint256,uint256,uint256)": {
        "details": "il primo gioco prevede che il giocatore debba indovinare la somma di due dadi                      se viene usato un personaggio di rarit 5 si ottiene un bonus",
        "params": {
          "_guess": "il risultato della somma secondo il giocatore",
          "_idCharacter": "l'id del personaggio scelto",
          "_xpScommessi": "la quantit di xp scommessi dal giocatore"
        }
      },
      "transferOwnership(address)": {
        "details": "Transfers ownership of the contract to a new account (`newOwner`). Can only be called by the current owner."
      },
      "withdraw()": {
        "details": "funzione che permette al proprietario del contratto di trasferire i fondi depositati dai giocatori al proprio account "
      },
      "xpGiveAway(uint256,uint256)": {
        "details": "funzione che permette ad un personaggio di livello 20 di far guadagnare ad un altro personaggio un po' di xp",
        "params": {
          "_firstId": "l'id del personaggio con un livello minore di 20",
          "_secondId": "l'id del personaggio di livello 20"
        }
      }
    }
  },
  "userdoc": {
    "methods": {}
  }
}