{
  "contractName": "MiniGames",
  "abi": [
    {
      "anonymous": false,
      "inputs": [
        {
          "indexed": false,
          "internalType": "uint256",
          "name": "id",
          "type": "uint256"
        },
        {
          "indexed": false,
          "internalType": "uint256",
          "name": "xpTotali",
          "type": "uint256"
        }
      ],
      "name": "BonusGameResult",
      "type": "event"
    },
    {
      "anonymous": false,
      "inputs": [
        {
          "indexed": false,
          "internalType": "uint256",
          "name": "id",
          "type": "uint256"
        },
        {
          "indexed": false,
          "internalType": "uint256",
          "name": "playerGuess",
          "type": "uint256"
        },
        {
          "indexed": false,
          "internalType": "uint256",
          "name": "result",
          "type": "uint256"
        },
        {
          "indexed": false,
          "internalType": "uint256",
          "name": "xpScommessi",
          "type": "uint256"
        },
        {
          "indexed": false,
          "internalType": "uint256",
          "name": "xpTotali",
          "type": "uint256"
        }
      ],
      "name": "GameResults",
      "type": "event"
    },
    {
      "anonymous": false,
      "inputs": [
        {
          "indexed": false,
          "internalType": "string",
          "name": "name",
          "type": "string"
        },
        {
          "indexed": false,
          "internalType": "uint256",
          "name": "id",
          "type": "uint256"
        },
        {
          "indexed": false,
          "internalType": "uint256",
          "name": "xp",
          "type": "uint256"
        },
        {
          "indexed": false,
          "internalType": "uint256",
          "name": "rarity",
          "type": "uint256"
        },
        {
          "indexed": false,
          "internalType": "uint256",
          "name": "level",
          "type": "uint256"
        }
      ],
      "name": "NewCharacter",
      "type": "event"
    },
    {
      "anonymous": false,
      "inputs": [
        {
          "indexed": true,
          "internalType": "address",
          "name": "previousOwner",
          "type": "address"
        },
        {
          "indexed": true,
          "internalType": "address",
          "name": "newOwner",
          "type": "address"
        }
      ],
      "name": "OwnershipTransferred",
      "type": "event"
    },
    {
      "inputs": [
        {
          "internalType": "uint256",
          "name": "",
          "type": "uint256"
        }
      ],
      "name": "book",
      "outputs": [
        {
          "internalType": "string",
          "name": "name",
          "type": "string"
        },
        {
          "internalType": "uint32",
          "name": "id",
          "type": "uint32"
        },
        {
          "internalType": "uint32",
          "name": "readyTime",
          "type": "uint32"
        },
        {
          "internalType": "uint16",
          "name": "xp",
          "type": "uint16"
        },
        {
          "internalType": "uint8",
          "name": "rarity",
          "type": "uint8"
        },
        {
          "internalType": "uint8",
          "name": "level",
          "type": "uint8"
        }
      ],
      "stateMutability": "view",
      "type": "function"
    },
    {
      "inputs": [
        {
          "internalType": "uint256",
          "name": "",
          "type": "uint256"
        }
      ],
      "name": "characterToOwner",
      "outputs": [
        {
          "internalType": "address",
          "name": "",
          "type": "address"
        }
      ],
      "stateMutability": "view",
      "type": "function"
    },
    {
      "inputs": [
        {
          "internalType": "string",
          "name": "_name",
          "type": "string"
        }
      ],
      "name": "createRandomCharacter",
      "outputs": [],
      "stateMutability": "payable",
      "type": "function"
    },
    {
      "inputs": [
        {
          "internalType": "address",
          "name": "_owner",
          "type": "address"
        }
      ],
      "name": "getCharactersByOwner",
      "outputs": [
        {
          "internalType": "uint256[]",
          "name": "",
          "type": "uint256[]"
        }
      ],
      "stateMutability": "view",
      "type": "function"
    },
    {
      "inputs": [],
      "name": "kill",
      "outputs": [],
      "stateMutability": "nonpayable",
      "type": "function"
    },
    {
      "inputs": [],
      "name": "owner",
      "outputs": [
        {
          "internalType": "address",
          "name": "",
          "type": "address"
        }
      ],
      "stateMutability": "view",
      "type": "function"
    },
    {
      "inputs": [],
      "name": "renounceOwnership",
      "outputs": [],
      "stateMutability": "nonpayable",
      "type": "function"
    },
    {
      "inputs": [
        {
          "internalType": "uint256",
          "name": "_fee",
          "type": "uint256"
        }
      ],
      "name": "setCreationFee",
      "outputs": [],
      "stateMutability": "nonpayable",
      "type": "function"
    },
    {
      "inputs": [
        {
          "internalType": "address",
          "name": "newOwner",
          "type": "address"
        }
      ],
      "name": "transferOwnership",
      "outputs": [],
      "stateMutability": "nonpayable",
      "type": "function"
    },
    {
      "inputs": [],
      "name": "withdraw",
      "outputs": [],
      "stateMutability": "nonpayable",
      "type": "function"
    },
    {
      "inputs": [
        {
          "internalType": "uint256",
          "name": "_number",
          "type": "uint256"
        }
      ],
      "name": "_setRandomNumber",
      "outputs": [],
      "stateMutability": "nonpayable",
      "type": "function"
    },
    {
      "inputs": [
        {
          "internalType": "uint256",
          "name": "_idCharacter",
          "type": "uint256"
        },
        {
          "internalType": "uint256",
          "name": "_guess",
          "type": "uint256"
        },
        {
          "internalType": "uint256",
          "name": "_xpScommessi",
          "type": "uint256"
        }
      ],
      "name": "sumDice",
      "outputs": [],
      "stateMutability": "nonpayable",
      "type": "function"
    },
    {
      "inputs": [
        {
          "internalType": "uint256",
          "name": "_idCharacter",
          "type": "uint256"
        },
        {
          "internalType": "uint256",
          "name": "_xpScommessi",
          "type": "uint256"
        }
      ],
      "name": "fightDice",
      "outputs": [],
      "stateMutability": "nonpayable",
      "type": "function"
    },
    {
      "inputs": [
        {
          "internalType": "uint256",
          "name": "_idCharacter",
          "type": "uint256"
        },
        {
          "internalType": "uint256",
          "name": "_guess",
          "type": "uint256"
        },
        {
          "internalType": "uint256",
          "name": "_xpScommessi",
          "type": "uint256"
        }
      ],
      "name": "pariDispari",
      "outputs": [],
      "stateMutability": "nonpayable",
      "type": "function"
    },
    {
      "inputs": [
        {
          "internalType": "uint256",
          "name": "_idCharacter",
          "type": "uint256"
        },
        {
          "internalType": "uint256",
          "name": "_guess",
          "type": "uint256"
        },
        {
          "internalType": "uint256",
          "name": "_xpScommessi",
          "type": "uint256"
        }
      ],
      "name": "highLow",
      "outputs": [],
      "stateMutability": "nonpayable",
      "type": "function"
    },
    {
      "inputs": [
        {
          "internalType": "uint256",
          "name": "_idCharacter",
          "type": "uint256"
        }
      ],
      "name": "emergencyGame",
      "outputs": [],
      "stateMutability": "nonpayable",
      "type": "function"
    },
    {
      "inputs": [
        {
          "internalType": "uint256",
          "name": "_firstId",
          "type": "uint256"
        },
        {
          "internalType": "uint256",
          "name": "_secondId",
          "type": "uint256"
        }
      ],
      "name": "xpGiveAway",
      "outputs": [],
      "stateMutability": "nonpayable",
      "type": "function"
    }
  ],
  "bytecode": "0x608060405261012c6001556611c37937e0800060025562093a80600755600061002c6100cf60201b60201c565b9050806000806101000a81548173ffffffffffffffffffffffffffffffffffffffff021916908373ffffffffffffffffffffffffffffffffffffffff1602179055508073ffffffffffffffffffffffffffffffffffffffff16600073ffffffffffffffffffffffffffffffffffffffff167f8be0079c531659141344cd1fd0a4f28419497f9722a3daafe3b4186f6b6457e060405160405180910390a3506100d7565b600033905090565b61244d806100e66000396000f3fe6080604052600436106100fe5760003560e01c8063715018a611610095578063b8f0d2fc11610064578063b8f0d2fc14610550578063de0ef79e14610595578063e135f60c146105da578063f2fde38b14610629578063fbcfe9371461067a576100fe565b8063715018a6146104585780638da5cb5b1461046f5780638f1e048c146104c6578063b7d8622514610515576100fe565b80633be5c296116100d15780633be5c2961461030b5780633ccfd60b1461038457806341c0e1b51461039b57806365e5a94b146103b2576100fe565b80631116fd041461010357806315da15011461020657806319e7ce8b146102555780631e0e8b04146102d0575b600080fd5b34801561010f57600080fd5b5061013c6004803603602081101561012657600080fd5b81019080803590602001909291905050506106b5565b60405180806020018763ffffffff1663ffffffff1681526020018663ffffffff1663ffffffff1681526020018561ffff1661ffff1681526020018460ff1660ff1681526020018360ff1660ff168152602001828103825288818151815260200191508051906020019080838360005b838110156101c65780820151818401526020810190506101ab565b50505050905090810190601f1680156101f35780820380516001836020036101000a031916815260200191505b5097505050505050505060405180910390f35b34801561021257600080fd5b506102536004803603606081101561022957600080fd5b810190808035906020019092919080359060200190929190803590602001909291905050506107de565b005b34801561026157600080fd5b5061028e6004803603602081101561027857600080fd5b8101908080359060200190929190505050610a2a565b604051808273ffffffffffffffffffffffffffffffffffffffff1673ffffffffffffffffffffffffffffffffffffffff16815260200191505060405180910390f35b3480156102dc57600080fd5b50610309600480360360208110156102f357600080fd5b8101908080359060200190929190505050610a5d565b005b6103826004803603602081101561032157600080fd5b810190808035906020019064010000000081111561033e57600080fd5b82018360208201111561035057600080fd5b8035906020019184600183028401116401000000008311171561037257600080fd5b9091929391929390505050610c71565b005b34801561039057600080fd5b50610399610d33565b005b3480156103a757600080fd5b506103b0610e52565b005b3480156103be57600080fd5b50610401600480360360208110156103d557600080fd5b81019080803573ffffffffffffffffffffffffffffffffffffffff169060200190929190505050610f40565b6040518080602001828103825283818151815260200191508051906020019060200280838360005b83811015610444578082015181840152602081019050610429565b505050509050019250505060405180910390f35b34801561046457600080fd5b5061046d61106d565b005b34801561047b57600080fd5b506104846111f5565b604051808273ffffffffffffffffffffffffffffffffffffffff1673ffffffffffffffffffffffffffffffffffffffff16815260200191505060405180910390f35b3480156104d257600080fd5b50610513600480360360608110156104e957600080fd5b8101908080359060200190929190803590602001909291908035906020019092919050505061121e565b005b34801561052157600080fd5b5061054e6004803603602081101561053857600080fd5b810190808035906020019092919050505061143c565b005b34801561055c57600080fd5b506105936004803603604081101561057357600080fd5b81019080803590602001909291908035906020019092919050505061150f565b005b3480156105a157600080fd5b506105d8600480360360408110156105b857600080fd5b8101908080359060200190929190803590602001909291905050506116f8565b005b3480156105e657600080fd5b50610627600480360360608110156105fd57600080fd5b8101908080359060200190929190803590602001909291908035906020019092919050505061191f565b005b34801561063557600080fd5b506106786004803603602081101561064c57600080fd5b81019080803573ffffffffffffffffffffffffffffffffffffffff169060200190929190505050611b65565b005b34801561068657600080fd5b506106b36004803603602081101561069d57600080fd5b8101908080359060200190929190505050611d72565b005b600381815481106106c257fe5b9060005260206000209060020201600091509050806000018054600181600116156101000203166002900480601f01602080910402602001604051908101604052809291908181526020018280546001816001161561010002031660029004801561076e5780601f106107435761010080835404028352916020019161076e565b820191906000526020600020905b81548152906001019060200180831161075157829003601f168201915b5050505050908060010160009054906101000a900463ffffffff16908060010160049054906101000a900463ffffffff16908060010160089054906101000a900461ffff169080600101600a9054906101000a900460ff169080600101600b9054906101000a900460ff16905086565b826004600082815260200190815260200160002060009054906101000a900473ffffffffffffffffffffffffffffffffffffffff1673ffffffffffffffffffffffffffffffffffffffff163373ffffffffffffffffffffffffffffffffffffffff161461084a57600080fd5b60006003858154811061085957fe5b906000526020600020906002020190506108738184611e45565b600061087e84611ec6565b61088787611ec6565b0190508085141561090a576108b1600583600101600a9054906101000a900460ff1660ff16611f26565b6108ce83600101600b9054906101000a900460ff1660ff16611f46565b6004860202028260010160088282829054906101000a900461ffff160192506101000a81548161ffff021916908361ffff1602179055506109ac565b6001810385148061091d57506001810185145b1561095c57600384028260010160088282829054906101000a900461ffff160192506101000a81548161ffff021916908361ffff1602179055506109ab565b6002810385148061096f57506002810185145b156109aa57600284028260010160088282829054906101000a900461ffff160192506101000a81548161ffff021916908361ffff1602179055505b5b5b7fa0dd4ef8b0e3c78049d04b6180a752998d27ae7ef8233ef6ca808d5d198cd48d868683878660010160089054906101000a900461ffff16604051808681526020018581526020018481526020018381526020018261ffff1681526020019550505050505060405180910390a1610a2282611faf565b505050505050565b60046020528060005260406000206000915054906101000a900473ffffffffffffffffffffffffffffffffffffffff1681565b806004600082815260200190815260200160002060009054906101000a900473ffffffffffffffffffffffffffffffffffffffff1673ffffffffffffffffffffffffffffffffffffffff163373ffffffffffffffffffffffffffffffffffffffff1614610ac957600080fd5b600060038381548110610ad857fe5b90600052602060002090600202019050610af181611fef565b8015610b13575060008160010160089054906101000a900461ffff1661ffff16145b610b1c57600080fd5b600083604051602001808281526020019150506040516020818303038152906040528051906020012060001c905060006101f38281610b5757fe5b061415610b965760148260010160088282829054906101000a900461ffff160192506101000a81548161ffff021916908361ffff160217905550610c16565b600060078281610ba257fe5b061415610be157600a8260010160088282829054906101000a900461ffff160192506101000a81548161ffff021916908361ffff160217905550610c15565b60058260010160088282829054906101000a900461ffff160192506101000a81548161ffff021916908361ffff1602179055505b5b7fc49e8366ecd1a4b11452b02e6101c5e3f10bc4115bda05f27df6a3a34c970024848360010160089054906101000a900461ffff16604051808381526020018261ffff1681526020019250505060405180910390a150505050565b6002600560003373ffffffffffffffffffffffffffffffffffffffff1673ffffffffffffffffffffffffffffffffffffffff1681526020019081526020016000205410610cbd57600080fd5b6002543414610ccb57600080fd5b6000610cd5612016565b9050610d2e83838080601f016020809104026020016040519081016040528093929190818152602001838380828437600081840152601f19601f8201169050808301925050505050505082610d2984612023565b61206e565b505050565b610d3b61231a565b73ffffffffffffffffffffffffffffffffffffffff166000809054906101000a900473ffffffffffffffffffffffffffffffffffffffff1673ffffffffffffffffffffffffffffffffffffffff1614610dfc576040517f08c379a00000000000000000000000000000000000000000000000000000000081526004018080602001828103825260208152602001807f4f776e61626c653a2063616c6c6572206973206e6f7420746865206f776e657281525060200191505060405180910390fd5b6000610e066111f5565b90508073ffffffffffffffffffffffffffffffffffffffff166108fc479081150290604051600060405180830381858888f19350505050158015610e4e573d6000803e3d6000fd5b5050565b610e5a61231a565b73ffffffffffffffffffffffffffffffffffffffff166000809054906101000a900473ffffffffffffffffffffffffffffffffffffffff1673ffffffffffffffffffffffffffffffffffffffff1614610f1b576040517f08c379a00000000000000000000000000000000000000000000000000000000081526004018080602001828103825260208152602001807f4f776e61626c653a2063616c6c6572206973206e6f7420746865206f776e657281525060200191505060405180910390fd5b6000610f256111f5565b90508073ffffffffffffffffffffffffffffffffffffffff16ff5b606080600560008473ffffffffffffffffffffffffffffffffffffffff1673ffffffffffffffffffffffffffffffffffffffff16815260200190815260200160002054604051908082528060200260200182016040528015610fb15781602001602082028038833980820191505090505b509050600080905060008090505b600380549050811015611062578473ffffffffffffffffffffffffffffffffffffffff166004600083815260200190815260200160002060009054906101000a900473ffffffffffffffffffffffffffffffffffffffff1673ffffffffffffffffffffffffffffffffffffffff161415611055578083838151811061104057fe5b60200260200101818152505081806001019250505b8080600101915050610fbf565b508192505050919050565b61107561231a565b73ffffffffffffffffffffffffffffffffffffffff166000809054906101000a900473ffffffffffffffffffffffffffffffffffffffff1673ffffffffffffffffffffffffffffffffffffffff1614611136576040517f08c379a00000000000000000000000000000000000000000000000000000000081526004018080602001828103825260208152602001807f4f776e61626c653a2063616c6c6572206973206e6f7420746865206f776e657281525060200191505060405180910390fd5b600073ffffffffffffffffffffffffffffffffffffffff166000809054906101000a900473ffffffffffffffffffffffffffffffffffffffff1673ffffffffffffffffffffffffffffffffffffffff167f8be0079c531659141344cd1fd0a4f28419497f9722a3daafe3b4186f6b6457e060405160405180910390a360008060006101000a81548173ffffffffffffffffffffffffffffffffffffffff021916908373ffffffffffffffffffffffffffffffffffffffff160217905550565b60008060009054906101000a900473ffffffffffffffffffffffffffffffffffffffff16905090565b826004600082815260200190815260200160002060009054906101000a900473ffffffffffffffffffffffffffffffffffffffff1673ffffffffffffffffffffffffffffffffffffffff163373ffffffffffffffffffffffffffffffffffffffff161461128a57600080fd5b60006003858154811061129957fe5b906000526020600020906002020190506112b38184611e45565b60006112be86611ec6565b9050600381111580156112d2575060038511155b806112e957506003811180156112e85750600385115b5b156113625761130d600183600101600a9054906101000a900460ff1660ff16611f26565b61132a83600101600b9054906101000a900460ff1660ff16611f46565b6003860202028260010160088282829054906101000a900461ffff160192506101000a81548161ffff021916908361ffff1602179055505b808514156113be5761138782600101600b9054906101000a900460ff1660ff16611f46565b60028502028260010160088282829054906101000a900461ffff160192506101000a81548161ffff021916908361ffff1602179055505b7fa0dd4ef8b0e3c78049d04b6180a752998d27ae7ef8233ef6ca808d5d198cd48d868683878660010160089054906101000a900461ffff16604051808681526020018581526020018481526020018381526020018261ffff1681526020019550505050505060405180910390a161143482611faf565b505050505050565b61144461231a565b73ffffffffffffffffffffffffffffffffffffffff166000809054906101000a900473ffffffffffffffffffffffffffffffffffffffff1673ffffffffffffffffffffffffffffffffffffffff1614611505576040517f08c379a00000000000000000000000000000000000000000000000000000000081526004018080602001828103825260208152602001807f4f776e61626c653a2063616c6c6572206973206e6f7420746865206f776e657281525060200191505060405180910390fd5b8060028190555050565b816004600082815260200190815260200160002060009054906101000a900473ffffffffffffffffffffffffffffffffffffffff1673ffffffffffffffffffffffffffffffffffffffff163373ffffffffffffffffffffffffffffffffffffffff161461157b57600080fd5b60006003848154811061158a57fe5b906000526020600020906002020190506115a48184611e45565b60006115af85611ec6565b905060006115bc85611ec6565b90508082111561163e576115e5600384600101600a9054906101000a900460ff1660ff16611f26565b61160284600101600b9054906101000a900460ff1660ff16611f46565b6002870202028360010160088282829054906101000a900461ffff160192506101000a81548161ffff021916908361ffff16021790555061167a565b8082141561167957848360010160088282829054906101000a900461ffff160192506101000a81548161ffff021916908361ffff1602179055505b5b7fa0dd4ef8b0e3c78049d04b6180a752998d27ae7ef8233ef6ca808d5d198cd48d868383888760010160089054906101000a900461ffff16604051808681526020018581526020018481526020018381526020018261ffff1681526020019550505050505060405180910390a16116f083611faf565b505050505050565b816004600082815260200190815260200160002060009054906101000a900473ffffffffffffffffffffffffffffffffffffffff1673ffffffffffffffffffffffffffffffffffffffff163373ffffffffffffffffffffffffffffffffffffffff161461176457600080fd5b816004600082815260200190815260200160002060009054906101000a900473ffffffffffffffffffffffffffffffffffffffff1673ffffffffffffffffffffffffffffffffffffffff163373ffffffffffffffffffffffffffffffffffffffff16146117d057600080fd5b6000600385815481106117df57fe5b906000526020600020906002020190506000600385815481106117fe57fe5b9060005260206000209060020201905061181782611fef565b8015611828575061182781611fef565b5b61183157600080fd5b601482600101600b9054906101000a900460ff1660ff1610806118685750601481600101600b9054906101000a900460ff1660ff16145b61187157600080fd5b60016064868161187d57fe5b06018260010160088282829054906101000a900461ffff160192506101000a81548161ffff021916908361ffff1602179055507fc49e8366ecd1a4b11452b02e6101c5e3f10bc4115bda05f27df6a3a34c970024868360010160089054906101000a900461ffff16604051808381526020018261ffff1681526020019250505060405180910390a161190e81612322565b61191782611faf565b505050505050565b826004600082815260200190815260200160002060009054906101000a900473ffffffffffffffffffffffffffffffffffffffff1673ffffffffffffffffffffffffffffffffffffffff163373ffffffffffffffffffffffffffffffffffffffff161461198b57600080fd5b60006003858154811061199a57fe5b906000526020600020906002020190506119b48184611e45565b60006119bf86611ec6565b90506000600282816119cd57fe5b061480156119e557506000600286816119e257fe5b06145b80611a1057506001600282816119f757fe5b06148015611a0f5750600160028681611a0c57fe5b06145b5b15611a8957611a34600283600101600a9054906101000a900460ff1660ff16611f26565b611a5183600101600b9054906101000a900460ff1660ff16611f46565b6002860202028260010160088282829054906101000a900461ffff160192506101000a81548161ffff021916908361ffff1602179055505b80851415611ae757611ab0600283600101600a9054906101000a900460ff1660ff16611f26565b60028502028260010160088282829054906101000a900461ffff160192506101000a81548161ffff021916908361ffff1602179055505b7fa0dd4ef8b0e3c78049d04b6180a752998d27ae7ef8233ef6ca808d5d198cd48d868683878660010160089054906101000a900461ffff16604051808681526020018581526020018481526020018381526020018261ffff1681526020019550505050505060405180910390a1611b5d82611faf565b505050505050565b611b6d61231a565b73ffffffffffffffffffffffffffffffffffffffff166000809054906101000a900473ffffffffffffffffffffffffffffffffffffffff1673ffffffffffffffffffffffffffffffffffffffff1614611c2e576040517f08c379a00000000000000000000000000000000000000000000000000000000081526004018080602001828103825260208152602001807f4f776e61626c653a2063616c6c6572206973206e6f7420746865206f776e657281525060200191505060405180910390fd5b600073ffffffffffffffffffffffffffffffffffffffff168173ffffffffffffffffffffffffffffffffffffffff161415611cb4576040517f08c379a00000000000000000000000000000000000000000000000000000000081526004018080602001828103825260268152602001806123f26026913960400191505060405180910390fd5b8073ffffffffffffffffffffffffffffffffffffffff166000809054906101000a900473ffffffffffffffffffffffffffffffffffffffff1673ffffffffffffffffffffffffffffffffffffffff167f8be0079c531659141344cd1fd0a4f28419497f9722a3daafe3b4186f6b6457e060405160405180910390a3806000806101000a81548173ffffffffffffffffffffffffffffffffffffffff021916908373ffffffffffffffffffffffffffffffffffffffff16021790555050565b611d7a61231a565b73ffffffffffffffffffffffffffffffffffffffff166000809054906101000a900473ffffffffffffffffffffffffffffffffffffffff1673ffffffffffffffffffffffffffffffffffffffff1614611e3b576040517f08c379a00000000000000000000000000000000000000000000000000000000081526004018080602001828103825260208152602001807f4f776e61626c653a2063616c6c6572206973206e6f7420746865206f776e657281525060200191505060405180910390fd5b8060068190555050565b611e4e82611fef565b8015611e6f5750808260010160089054906101000a900461ffff1661ffff16115b8015611e8757506000811180611e86575060198111155b5b611e9057600080fd5b808260010160088282829054906101000a900461ffff160392506101000a81548161ffff021916908361ffff1602179055505050565b600060016006834260066000815480929190600101919050556040516020018084815260200183815260200182815260200193505050506040516020818303038152906040528051906020012060001c81611f1d57fe5b06019050919050565b600081831415611f3b57600283029050611f40565b600190505b92915050565b600060058210158015611f595750600a82105b15611f675760029050611faa565b600a8210158015611f785750600f82105b15611f865760039050611faa565b600f8210158015611f975750601482105b15611fa55760049050611faa565b600190505b919050565b80600101600b9054906101000a900460ff1660ff166001540242018160010160046101000a81548163ffffffff021916908363ffffffff16021790555050565b6000428260010160049054906101000a900463ffffffff1663ffffffff1611159050919050565b6000600380549050905090565b600080600190506000600290505b6005811161206357600081858161204457fe5b061415612058578091508192505050612069565b600181019050612031565b81925050505b919050565b60036040518060c001604052808581526020018463ffffffff1681526020016001805402420163ffffffff168152602001600a61ffff1681526020018360ff168152602001600160ff168152509080600181540180825580915050600190039060005260206000209060020201600090919091909150600082015181600001908051906020019061210092919061234c565b5060208201518160010160006101000a81548163ffffffff021916908363ffffffff16021790555060408201518160010160046101000a81548163ffffffff021916908363ffffffff16021790555060608201518160010160086101000a81548161ffff021916908361ffff160217905550608082015181600101600a6101000a81548160ff021916908360ff16021790555060a082015181600101600b6101000a81548160ff021916908360ff1602179055505050336004600084815260200190815260200160002060006101000a81548173ffffffffffffffffffffffffffffffffffffffff021916908373ffffffffffffffffffffffffffffffffffffffff160217905550600560003373ffffffffffffffffffffffffffffffffffffffff1673ffffffffffffffffffffffffffffffffffffffff168152602001908152602001600020600081548092919060010191905055507f018fa0067dfca489f2f0a0203a5852cd777aec0a2b4b86f62b87478e2cffc0788383600a8460016040518080602001868152602001858152602001848152602001838152602001828103825287818151815260200191508051906020019080838360005b838110156122d75780820151818401526020810190506122bc565b50505050905090810190601f1680156123045780820380516001836020036101000a031916815260200191505b50965050505050505060405180910390a1505050565b600033905090565b60075442018160010160046101000a81548163ffffffff021916908363ffffffff16021790555050565b828054600181600116156101000203166002900490600052602060002090601f016020900481019282601f1061238d57805160ff19168380011785556123bb565b828001600101855582156123bb579182015b828111156123ba57825182559160200191906001019061239f565b5b5090506123c891906123cc565b5090565b6123ee91905b808211156123ea5760008160009055506001016123d2565b5090565b9056fe4f776e61626c653a206e6577206f776e657220697320746865207a65726f2061646472657373a26469706673582212204f7ea25ee9a702d749932a314845aaeb5972a5196ebbc8b231ca58d9620c766e64736f6c63430006020033",
  "source": "pragma solidity >0.6.0;\r\n\r\nimport \"./Characters.sol\";\r\n\r\ncontract MiniGames is Characters {\r\n    \r\n    event GameResults(uint id, uint playerGuess, uint result, uint xpScommessi, uint xpTotali);\r\n    event BonusGameResult(uint id, uint xpTotali);\r\n    \r\n    uint private randomNumber;\r\n    uint restoreTime = 7 days;\r\n    \r\n    ///@dev         controlla che il personaggio che il giocatore vuole utilizzare sia di sua propriet\r\n    ///@param _id   l'id del personaggio \r\n    modifier ownership(uint _id) {\r\n        require(msg.sender == characterToOwner[_id]);\r\n        _;\r\n    }\r\n    \r\n    ///@dev             funzione per settare la variabile randomNumber\r\n    ///@param _number   un numero\r\n    function _setRandomNumber(uint _number) external onlyOwner {\r\n        randomNumber = _number;\r\n    }\r\n\r\n    ///@dev                 funzione che controlla che il personaggio sia pronto all'utilizzo \r\n    ///@param _character    il puntatore al personaggio\r\n    function _isReady(Character storage _character) private view returns (bool) {\r\n        return (_character.readyTime <= now);\r\n    }\r\n    \r\n    ///@dev                 funzione che imposta il tempo di ripresa del personaggio dopo essere stato utilizzato \r\n    ///@param _character    il puntatore al personaggio\r\n    function _triggerCooldown(Character storage _character) private {\r\n        _character.readyTime = uint32(now + cooldownTime * _character.level);\r\n    }\r\n    \r\n    ///@dev                 funzione che imposta il tempo di ripresa di un personaggio di livello 20 dopo essere stato utilizzato \r\n    ///@param _character    il puntatore al personaggio\r\n    function _triggerCooldownLevelTwenty(Character storage _character) private {\r\n        _character.readyTime = uint32(now + restoreTime);\r\n    }\r\n\r\n    ///@dev                 funzione che controlla il personaggio prima del gioco  \r\n    ///@param _character    il puntatore al personaggio\r\n    ///@param _xpScommessi  numero di xp scommessi dal giocatore\r\n    function _characterCheck(Character storage _character, uint _xpScommessi) private {\r\n        require(_isReady(_character) && (_character.xp > _xpScommessi) && (_xpScommessi > 0 || _xpScommessi <= 25));\r\n        _character.xp -= uint16(_xpScommessi);\r\n    }\r\n    \r\n    ///@dev             funzione che assegna un moltiplicatore extra (in caso di vincita) a seconda del livello\r\n    ///@param _level    livello del personaggio\r\n    function _bonusXp(uint _level) private pure returns (uint) {\r\n        if(_level >= 5 && _level < 10){\r\n            return 2;\r\n        }else if(_level >= 10 && _level < 15) {\r\n            return 3;\r\n        }else if(_level >= 15 && _level <20) {\r\n            return 4;\r\n        }else{\r\n            return 1;\r\n        }\r\n    }\r\n    \r\n    ///@dev                     funzione che determina un moltiplicatore extra (in caso di vincita) a seconda della rarit\r\n    ///@param _rarity           parametro fisso che indica una specifica rarit\r\n    ///@param _characterRarity  rarit del personaggio scelto dal giocatore\r\n    function _bonusRarity(uint _rarity, uint _characterRarity) private pure returns (uint) {\r\n        if(_rarity == _characterRarity){\r\n            return _rarity * 2;\r\n        }else{\r\n            return 1;\r\n        }\r\n    }\r\n    \r\n    ///@dev         funzione che genera un dado pseudocasuale \r\n    ///@param _str  un valore che contribuisce alla creazione del dado\r\n    function _generateRandomDice(uint _str) private returns (uint) {\r\n        return uint(keccak256(abi.encodePacked(_str, now, randomNumber++))) % 6 + 1;\r\n    }\r\n    \r\n    ///@dev                 il primo gioco prevede che il giocatore debba indovinare la somma di due dadi \r\n    ///                     se viene usato un personaggio di rarit 5 si ottiene un bonus\r\n    ///@param _idCharacter  l'id del personaggio scelto\r\n    ///@param _guess        il risultato della somma secondo il giocatore\r\n    ///@param _xpScommessi  la quantit di xp scommessi dal giocatore\r\n    function sumDice(uint _idCharacter, uint _guess, uint _xpScommessi) public ownership(_idCharacter) {\r\n        Character storage player = book[_idCharacter];\r\n        _characterCheck(player, _xpScommessi);\r\n        \r\n        uint somma = _generateRandomDice(_idCharacter) + _generateRandomDice(_xpScommessi);\r\n        \r\n        if(_guess == somma){\r\n            player.xp += uint16(_xpScommessi * 4 * _bonusXp(player.level) * _bonusRarity(5, player.rarity));\r\n        }else if(_guess == somma - 1 || _guess == somma + 1) {\r\n            player.xp +=uint16(_xpScommessi * 3);\r\n        }else if(_guess == somma - 2 || _guess == somma + 2) {\r\n            player.xp +=uint16(_xpScommessi * 2);\r\n        }\r\n        \r\n        emit GameResults(_idCharacter, _guess, somma, _xpScommessi, player.xp);\r\n        \r\n        _triggerCooldown(player);\r\n    }\r\n    \r\n    ///@dev                 il gioco prevede che vengano generati due dadi: uno viene assegnato al giocatore mentre l'altro all'avversario (computer). \r\n    ///                     Vince il numero pi alto\r\n    ///                     se viene usato un personaggio di rarit 3 si ottiene un bonus\r\n    ///@param _idCharacter  l'id del personaggio scelto\r\n    ///@param _xpScommessi  la quantit di xp scommessi dal giocatore\r\n    function fightDice(uint _idCharacter, uint _xpScommessi) public ownership(_idCharacter){\r\n        Character storage player = book[_idCharacter];\r\n        _characterCheck(player, _xpScommessi);\r\n        \r\n        uint player_dice = _generateRandomDice(_idCharacter);\r\n        uint enemy_dice = _generateRandomDice(_xpScommessi);\r\n        \r\n        if(player_dice > enemy_dice){\r\n            player.xp += uint16(_xpScommessi * 2 * _bonusXp(player.level) * _bonusRarity(3, player.rarity));\r\n        }else if (player_dice == enemy_dice){\r\n            player.xp +=uint16(_xpScommessi);\r\n        }\r\n        \r\n        emit GameResults(_idCharacter, player_dice, enemy_dice, _xpScommessi, player.xp);\r\n        \r\n        _triggerCooldown(player);\r\n        \r\n    }\r\n    \r\n    ///@dev                 il giocatore deve indovinare se il dado generato sar pari o dispari \r\n    ///                     se viene usato un personaggio di rarit 2 si ottiene un bonus\r\n    ///@param _idCharacter  l'id del personaggio scelto\r\n    ///@param _guess        il numero del dado che uscir secondo il giocatore \r\n    ///@param _xpScommessi  la quantit di xp scommessi dal giocatore\r\n    function pariDispari(uint _idCharacter, uint _guess, uint _xpScommessi) public ownership(_idCharacter) {\r\n        Character storage player = book[_idCharacter];\r\n        _characterCheck(player, _xpScommessi);\r\n        \r\n        uint dice = _generateRandomDice(_idCharacter);\r\n        \r\n        if((dice % 2 == 0 && _guess % 2 == 0) || (dice % 2 == 1 && _guess % 2 == 1)){\r\n            player.xp += uint16(_xpScommessi * 2 * _bonusXp(player.level) * _bonusRarity(2, player.rarity));\r\n        }\r\n        \r\n        //se indovina anche il numero esatto del dado, ottiene un bonus ulteriore\r\n        if(_guess == dice) {\r\n            player.xp += uint16(_xpScommessi * 2 * _bonusRarity(2, player.rarity));\r\n        }\r\n        \r\n        emit GameResults(_idCharacter, _guess, dice, _xpScommessi, player.xp);\r\n        \r\n        _triggerCooldown(player);\r\n    }\r\n    \r\n    ///@dev                 il giocatore deve indovinare se il dado generato sar maggiore o minore di 3 \r\n    ///                     se viene usato un personaggio di rarit 1 si ottiene un bonus\r\n    ///@param _idCharacter  l'id del personaggio scelto\r\n    ///@param _guess        il numero del dado che uscir secondo il giocatore \r\n    ///@param _xpScommessi  la quantit di xp scommessi dal giocatore\r\n    function highLow(uint _idCharacter, uint _guess, uint _xpScommessi) public ownership(_idCharacter) {\r\n        Character storage player = book[_idCharacter];\r\n        _characterCheck(player, _xpScommessi);\r\n        \r\n        uint dice = _generateRandomDice(_idCharacter);\r\n        \r\n        if((dice <= 3 && _guess <= 3) || (dice > 3 && _guess > 3)){\r\n            player.xp += uint16(_xpScommessi * 3 * _bonusXp(player.level) * _bonusRarity(1, player.rarity));\r\n        }\r\n        \r\n        //se indovina anche il numero esatto del dado, ottiene un bonus ulteriore\r\n        if(_guess == dice) {\r\n            player.xp += uint16(_xpScommessi * 2 * _bonusXp(player.level));\r\n        }\r\n        \r\n        emit GameResults(_idCharacter, _guess, dice, _xpScommessi, player.xp);\r\n        \r\n        _triggerCooldown(player);\r\n    }\r\n    \r\n    ///@dev                 qualora il personaggio dovesse rimanere senza xp, il giocatore potr usare questa funzione per ricaricare il personaggio \r\n    ///@param _idCharacter  l'id del personaggio scelto\r\n    function emergencyGame(uint _idCharacter) public ownership(_idCharacter) {\r\n        Character storage player = book[_idCharacter];\r\n        require(_isReady(player) && player.xp == 0);\r\n        \r\n        uint xps = uint(keccak256(abi.encodePacked(_idCharacter)));\r\n        \r\n        if (xps % 499 == 0){\r\n            player.xp += 20;\r\n        }else if(xps % 7 == 0){\r\n            player.xp += 10;\r\n        }else{\r\n            player.xp += 5;\r\n        }\r\n        \r\n        emit BonusGameResult(_idCharacter, player.xp);\r\n    }\r\n    \r\n    ///@dev                 funzione che permette ad un personaggio di livello 20 di far guadagnare ad un altro personaggio un po' di xp\r\n    ///@param _firstId      l'id del personaggio con un livello minore di 20\r\n    ///@param _secondId     l'id del personaggio di livello 20\r\n    function xpGiveAway(uint _firstId, uint _secondId) public ownership(_firstId) ownership(_secondId) {\r\n        Character storage characterOne = book[_firstId];\r\n        Character storage characterTwo = book[_secondId];\r\n        \r\n        require(_isReady(characterOne) && _isReady(characterTwo));\r\n        require(characterOne.level < 20 || characterTwo.level == 20);\r\n        \r\n        characterOne.xp += uint16(_secondId % 100 + 1);\r\n        \r\n        emit BonusGameResult(_firstId, characterOne.xp);\r\n        \r\n        _triggerCooldownLevelTwenty(characterTwo);\r\n        _triggerCooldown(characterOne);\r\n    }\r\n    \r\n}",
  "sourcePath": "C:\\Users\\giovanna\\Desktop\\UNIBG\\Tesi_Progetto\\TruffleProject\\contracts\\MiniGames.sol",
  "compiler": {
    "name": "solc",
    "version": "0.6.2+commit.bacdbe57.Emscripten.clang"
  },
  "schemaVersion": "3.1.0",
  "updatedAt": "2020-07-21T15:00:47.374Z",
  "devdoc": {
    "methods": {
      "_setRandomNumber(uint256)": {
        "details": "funzione per settare la variabile randomNumber",
        "params": {
          "_number": "un numero"
        }
      },
      "createRandomCharacter(string)": {
        "details": "funzione che permette al giocatore di creare un personaggioNOTA: questa funzione pu essere chiamata solo due volte (sono necessari almeno due personaggi per poter usare tutte le funzioni)",
        "params": {
          "_name": "il nome che il giocatore sceglie per il proprio personaggio"
        }
      },
      "emergencyGame(uint256)": {
        "details": "qualora il personaggio dovesse rimanere senza xp, il giocatore potr usare questa funzione per ricaricare il personaggio ",
        "params": {
          "_idCharacter": "l'id del personaggio scelto"
        }
      },
      "fightDice(uint256,uint256)": {
        "details": "il gioco prevede che vengano generati due dadi: uno viene assegnato al giocatore mentre l'altro all'avversario (computer).                      Vince il numero pi alto                     se viene usato un personaggio di rarit 3 si ottiene un bonus",
        "params": {
          "_idCharacter": "l'id del personaggio scelto",
          "_xpScommessi": "la quantit di xp scommessi dal giocatore"
        }
      },
      "getCharactersByOwner(address)": {
        "details": "funzione che permette di visualizzare la lista dei personaggi associati ad un certo indirizzo ",
        "params": {
          "_owner": "l'inidirizzo di un giocatore"
        },
        "returns": {
          "_0": "result   restituisce un array contenente la lista dei personaggi associati ad un indirizzo"
        }
      },
      "highLow(uint256,uint256,uint256)": {
        "details": "il giocatore deve indovinare se il dado generato sar maggiore o minore di 3                      se viene usato un personaggio di rarit 1 si ottiene un bonus",
        "params": {
          "_guess": "il numero del dado che uscir secondo il giocatore ",
          "_idCharacter": "l'id del personaggio scelto",
          "_xpScommessi": "la quantit di xp scommessi dal giocatore"
        }
      },
      "owner()": {
        "details": "Returns the address of the current owner."
      },
      "pariDispari(uint256,uint256,uint256)": {
        "details": "il giocatore deve indovinare se il dado generato sar pari o dispari                      se viene usato un personaggio di rarit 2 si ottiene un bonus",
        "params": {
          "_guess": "il numero del dado che uscir secondo il giocatore ",
          "_idCharacter": "l'id del personaggio scelto",
          "_xpScommessi": "la quantit di xp scommessi dal giocatore"
        }
      },
      "renounceOwnership()": {
        "details": "Leaves the contract without owner. It will not be possible to call `onlyOwner` functions anymore. Can only be called by the current owner.     * NOTE: Renouncing ownership will leave the contract without an owner, thereby removing any functionality that is only available to the owner."
      },
      "setCreationFee(uint256)": {
        "details": "funzione che permette al proprietario del contratto di modificare il prezzo per creare un personaggio "
      },
      "sumDice(uint256,uint256,uint256)": {
        "details": "il primo gioco prevede che il giocatore debba indovinare la somma di due dadi                      se viene usato un personaggio di rarit 5 si ottiene un bonus",
        "params": {
          "_guess": "il risultato della somma secondo il giocatore",
          "_idCharacter": "l'id del personaggio scelto",
          "_xpScommessi": "la quantit di xp scommessi dal giocatore"
        }
      },
      "transferOwnership(address)": {
        "details": "Transfers ownership of the contract to a new account (`newOwner`). Can only be called by the current owner."
      },
      "withdraw()": {
        "details": "funzione che permette al proprietario del contratto di trasferire i fondi depositati dai giocatori al proprio account "
      },
      "xpGiveAway(uint256,uint256)": {
        "details": "funzione che permette ad un personaggio di livello 20 di far guadagnare ad un altro personaggio un po' di xp",
        "params": {
          "_firstId": "l'id del personaggio con un livello minore di 20",
          "_secondId": "l'id del personaggio di livello 20"
        }
      }
    }
  },
  "userdoc": {
    "methods": {}
  }
}