{
  "contractName": "Characters",
  "abi": [
    {
      "anonymous": false,
      "inputs": [
        {
          "indexed": false,
          "internalType": "string",
          "name": "name",
          "type": "string"
        },
        {
          "indexed": false,
          "internalType": "uint256",
          "name": "id",
          "type": "uint256"
        },
        {
          "indexed": false,
          "internalType": "uint256",
          "name": "xp",
          "type": "uint256"
        },
        {
          "indexed": false,
          "internalType": "uint256",
          "name": "rarity",
          "type": "uint256"
        },
        {
          "indexed": false,
          "internalType": "uint256",
          "name": "level",
          "type": "uint256"
        }
      ],
      "name": "NewCharacter",
      "type": "event"
    },
    {
      "anonymous": false,
      "inputs": [
        {
          "indexed": true,
          "internalType": "address",
          "name": "previousOwner",
          "type": "address"
        },
        {
          "indexed": true,
          "internalType": "address",
          "name": "newOwner",
          "type": "address"
        }
      ],
      "name": "OwnershipTransferred",
      "type": "event"
    },
    {
      "inputs": [
        {
          "internalType": "uint256",
          "name": "",
          "type": "uint256"
        }
      ],
      "name": "book",
      "outputs": [
        {
          "internalType": "string",
          "name": "name",
          "type": "string"
        },
        {
          "internalType": "uint32",
          "name": "id",
          "type": "uint32"
        },
        {
          "internalType": "uint32",
          "name": "readyTime",
          "type": "uint32"
        },
        {
          "internalType": "uint16",
          "name": "xp",
          "type": "uint16"
        },
        {
          "internalType": "uint8",
          "name": "rarity",
          "type": "uint8"
        },
        {
          "internalType": "uint8",
          "name": "level",
          "type": "uint8"
        }
      ],
      "stateMutability": "view",
      "type": "function",
      "constant": true
    },
    {
      "inputs": [
        {
          "internalType": "uint256",
          "name": "",
          "type": "uint256"
        }
      ],
      "name": "characterToOwner",
      "outputs": [
        {
          "internalType": "address",
          "name": "",
          "type": "address"
        }
      ],
      "stateMutability": "view",
      "type": "function",
      "constant": true
    },
    {
      "inputs": [],
      "name": "owner",
      "outputs": [
        {
          "internalType": "address",
          "name": "",
          "type": "address"
        }
      ],
      "stateMutability": "view",
      "type": "function",
      "constant": true
    },
    {
      "inputs": [],
      "name": "renounceOwnership",
      "outputs": [],
      "stateMutability": "nonpayable",
      "type": "function"
    },
    {
      "inputs": [
        {
          "internalType": "address",
          "name": "newOwner",
          "type": "address"
        }
      ],
      "name": "transferOwnership",
      "outputs": [],
      "stateMutability": "nonpayable",
      "type": "function"
    },
    {
      "inputs": [
        {
          "internalType": "string",
          "name": "_name",
          "type": "string"
        }
      ],
      "name": "createRandomCharacter",
      "outputs": [],
      "stateMutability": "payable",
      "type": "function",
      "payable": true
    },
    {
      "inputs": [],
      "name": "withdraw",
      "outputs": [],
      "stateMutability": "nonpayable",
      "type": "function"
    },
    {
      "inputs": [
        {
          "internalType": "uint256",
          "name": "_fee",
          "type": "uint256"
        }
      ],
      "name": "setCreationFee",
      "outputs": [],
      "stateMutability": "nonpayable",
      "type": "function"
    },
    {
      "inputs": [
        {
          "internalType": "address",
          "name": "_owner",
          "type": "address"
        }
      ],
      "name": "getCharactersByOwner",
      "outputs": [
        {
          "internalType": "uint256[]",
          "name": "",
          "type": "uint256[]"
        }
      ],
      "stateMutability": "view",
      "type": "function",
      "constant": true
    },
    {
      "inputs": [],
      "name": "kill",
      "outputs": [],
      "stateMutability": "nonpayable",
      "type": "function"
    }
  ],
  "bytecode": "0x608060405261012c6001556611c37937e0800060025560006100256100c860201b60201c565b9050806000806101000a81548173ffffffffffffffffffffffffffffffffffffffff021916908373ffffffffffffffffffffffffffffffffffffffff1602179055508073ffffffffffffffffffffffffffffffffffffffff16600073ffffffffffffffffffffffffffffffffffffffff167f8be0079c531659141344cd1fd0a4f28419497f9722a3daafe3b4186f6b6457e060405160405180910390a3506100d0565b600033905090565b611251806100df6000396000f3fe6080604052600436106100915760003560e01c806365e5a94b1161005957806365e5a94b146102bb578063715018a6146103615780638da5cb5b14610378578063b7d86225146103cf578063f2fde38b1461040a57610091565b80631116fd041461009657806319e7ce8b146101995780633be5c296146102145780633ccfd60b1461028d57806341c0e1b5146102a4575b600080fd5b3480156100a257600080fd5b506100cf600480360360208110156100b957600080fd5b810190808035906020019092919050505061045b565b60405180806020018763ffffffff1663ffffffff1681526020018663ffffffff1663ffffffff1681526020018561ffff1661ffff1681526020018460ff1660ff1681526020018360ff1660ff168152602001828103825288818151815260200191508051906020019080838360005b8381101561015957808201518184015260208101905061013e565b50505050905090810190601f1680156101865780820380516001836020036101000a031916815260200191505b5097505050505050505060405180910390f35b3480156101a557600080fd5b506101d2600480360360208110156101bc57600080fd5b8101908080359060200190929190505050610584565b604051808273ffffffffffffffffffffffffffffffffffffffff1673ffffffffffffffffffffffffffffffffffffffff16815260200191505060405180910390f35b61028b6004803603602081101561022a57600080fd5b810190808035906020019064010000000081111561024757600080fd5b82018360208201111561025957600080fd5b8035906020019184600183028401116401000000008311171561027b57600080fd5b90919293919293905050506105b7565b005b34801561029957600080fd5b506102a2610679565b005b3480156102b057600080fd5b506102b9610798565b005b3480156102c757600080fd5b5061030a600480360360208110156102de57600080fd5b81019080803573ffffffffffffffffffffffffffffffffffffffff169060200190929190505050610886565b6040518080602001828103825283818151815260200191508051906020019060200280838360005b8381101561034d578082015181840152602081019050610332565b505050509050019250505060405180910390f35b34801561036d57600080fd5b506103766109b3565b005b34801561038457600080fd5b5061038d610b3b565b604051808273ffffffffffffffffffffffffffffffffffffffff1673ffffffffffffffffffffffffffffffffffffffff16815260200191505060405180910390f35b3480156103db57600080fd5b50610408600480360360208110156103f257600080fd5b8101908080359060200190929190505050610b64565b005b34801561041657600080fd5b506104596004803603602081101561042d57600080fd5b81019080803573ffffffffffffffffffffffffffffffffffffffff169060200190929190505050610c37565b005b6003818154811061046857fe5b9060005260206000209060020201600091509050806000018054600181600116156101000203166002900480601f0160208091040260200160405190810160405280929190818152602001828054600181600116156101000203166002900480156105145780601f106104e957610100808354040283529160200191610514565b820191906000526020600020905b8154815290600101906020018083116104f757829003601f168201915b5050505050908060010160009054906101000a900463ffffffff16908060010160049054906101000a900463ffffffff16908060010160089054906101000a900461ffff169080600101600a9054906101000a900460ff169080600101600b9054906101000a900460ff16905086565b60046020528060005260406000206000915054906101000a900473ffffffffffffffffffffffffffffffffffffffff1681565b6002600560003373ffffffffffffffffffffffffffffffffffffffff1673ffffffffffffffffffffffffffffffffffffffff168152602001908152602001600020541061060357600080fd5b600254341461061157600080fd5b600061061b610e44565b905061067483838080601f016020809104026020016040519081016040528093929190818152602001838380828437600081840152601f19601f820116905080830192505050505050508261066f84610e51565b610e9c565b505050565b610681611148565b73ffffffffffffffffffffffffffffffffffffffff166000809054906101000a900473ffffffffffffffffffffffffffffffffffffffff1673ffffffffffffffffffffffffffffffffffffffff1614610742576040517f08c379a00000000000000000000000000000000000000000000000000000000081526004018080602001828103825260208152602001807f4f776e61626c653a2063616c6c6572206973206e6f7420746865206f776e657281525060200191505060405180910390fd5b600061074c610b3b565b90508073ffffffffffffffffffffffffffffffffffffffff166108fc479081150290604051600060405180830381858888f19350505050158015610794573d6000803e3d6000fd5b5050565b6107a0611148565b73ffffffffffffffffffffffffffffffffffffffff166000809054906101000a900473ffffffffffffffffffffffffffffffffffffffff1673ffffffffffffffffffffffffffffffffffffffff1614610861576040517f08c379a00000000000000000000000000000000000000000000000000000000081526004018080602001828103825260208152602001807f4f776e61626c653a2063616c6c6572206973206e6f7420746865206f776e657281525060200191505060405180910390fd5b600061086b610b3b565b90508073ffffffffffffffffffffffffffffffffffffffff16ff5b606080600560008473ffffffffffffffffffffffffffffffffffffffff1673ffffffffffffffffffffffffffffffffffffffff168152602001908152602001600020546040519080825280602002602001820160405280156108f75781602001602082028038833980820191505090505b509050600080905060008090505b6003805490508110156109a8578473ffffffffffffffffffffffffffffffffffffffff166004600083815260200190815260200160002060009054906101000a900473ffffffffffffffffffffffffffffffffffffffff1673ffffffffffffffffffffffffffffffffffffffff16141561099b578083838151811061098657fe5b60200260200101818152505081806001019250505b8080600101915050610905565b508192505050919050565b6109bb611148565b73ffffffffffffffffffffffffffffffffffffffff166000809054906101000a900473ffffffffffffffffffffffffffffffffffffffff1673ffffffffffffffffffffffffffffffffffffffff1614610a7c576040517f08c379a00000000000000000000000000000000000000000000000000000000081526004018080602001828103825260208152602001807f4f776e61626c653a2063616c6c6572206973206e6f7420746865206f776e657281525060200191505060405180910390fd5b600073ffffffffffffffffffffffffffffffffffffffff166000809054906101000a900473ffffffffffffffffffffffffffffffffffffffff1673ffffffffffffffffffffffffffffffffffffffff167f8be0079c531659141344cd1fd0a4f28419497f9722a3daafe3b4186f6b6457e060405160405180910390a360008060006101000a81548173ffffffffffffffffffffffffffffffffffffffff021916908373ffffffffffffffffffffffffffffffffffffffff160217905550565b60008060009054906101000a900473ffffffffffffffffffffffffffffffffffffffff16905090565b610b6c611148565b73ffffffffffffffffffffffffffffffffffffffff166000809054906101000a900473ffffffffffffffffffffffffffffffffffffffff1673ffffffffffffffffffffffffffffffffffffffff1614610c2d576040517f08c379a00000000000000000000000000000000000000000000000000000000081526004018080602001828103825260208152602001807f4f776e61626c653a2063616c6c6572206973206e6f7420746865206f776e657281525060200191505060405180910390fd5b8060028190555050565b610c3f611148565b73ffffffffffffffffffffffffffffffffffffffff166000809054906101000a900473ffffffffffffffffffffffffffffffffffffffff1673ffffffffffffffffffffffffffffffffffffffff1614610d00576040517f08c379a00000000000000000000000000000000000000000000000000000000081526004018080602001828103825260208152602001807f4f776e61626c653a2063616c6c6572206973206e6f7420746865206f776e657281525060200191505060405180910390fd5b600073ffffffffffffffffffffffffffffffffffffffff168173ffffffffffffffffffffffffffffffffffffffff161415610d86576040517f08c379a00000000000000000000000000000000000000000000000000000000081526004018080602001828103825260268152602001806111f66026913960400191505060405180910390fd5b8073ffffffffffffffffffffffffffffffffffffffff166000809054906101000a900473ffffffffffffffffffffffffffffffffffffffff1673ffffffffffffffffffffffffffffffffffffffff167f8be0079c531659141344cd1fd0a4f28419497f9722a3daafe3b4186f6b6457e060405160405180910390a3806000806101000a81548173ffffffffffffffffffffffffffffffffffffffff021916908373ffffffffffffffffffffffffffffffffffffffff16021790555050565b6000600380549050905090565b600080600190506000600290505b60058111610e91576000818581610e7257fe5b061415610e86578091508192505050610e97565b600181019050610e5f565b81925050505b919050565b60036040518060c001604052808581526020018463ffffffff1681526020016001805402420163ffffffff168152602001600a61ffff1681526020018360ff168152602001600160ff1681525090806001815401808255809150506001900390600052602060002090600202016000909190919091506000820151816000019080519060200190610f2e929190611150565b5060208201518160010160006101000a81548163ffffffff021916908363ffffffff16021790555060408201518160010160046101000a81548163ffffffff021916908363ffffffff16021790555060608201518160010160086101000a81548161ffff021916908361ffff160217905550608082015181600101600a6101000a81548160ff021916908360ff16021790555060a082015181600101600b6101000a81548160ff021916908360ff1602179055505050336004600084815260200190815260200160002060006101000a81548173ffffffffffffffffffffffffffffffffffffffff021916908373ffffffffffffffffffffffffffffffffffffffff160217905550600560003373ffffffffffffffffffffffffffffffffffffffff1673ffffffffffffffffffffffffffffffffffffffff168152602001908152602001600020600081548092919060010191905055507f018fa0067dfca489f2f0a0203a5852cd777aec0a2b4b86f62b87478e2cffc0788383600a8460016040518080602001868152602001858152602001848152602001838152602001828103825287818151815260200191508051906020019080838360005b838110156111055780820151818401526020810190506110ea565b50505050905090810190601f1680156111325780820380516001836020036101000a031916815260200191505b50965050505050505060405180910390a1505050565b600033905090565b828054600181600116156101000203166002900490600052602060002090601f016020900481019282601f1061119157805160ff19168380011785556111bf565b828001600101855582156111bf579182015b828111156111be5782518255916020019190600101906111a3565b5b5090506111cc91906111d0565b5090565b6111f291905b808211156111ee5760008160009055506001016111d6565b5090565b9056fe4f776e61626c653a206e6577206f776e657220697320746865207a65726f2061646472657373a2646970667358221220aa3e1558cf4b809b640b9fb425ce0f98236887ee2294504edaae004b40126e7564736f6c63430006020033",
  "source": "pragma solidity >0.6.0;\r\n\r\nimport \"@openzeppelin/contracts/access/Ownable.sol\";\r\n\r\ncontract Characters is Ownable {\r\n    \r\n    event NewCharacter(string name, uint id, uint xp, uint rarity, uint level);\r\n    \r\n    uint cooldownTime = 5 minutes;\r\n    uint creationFee = 0.005 ether; //attualmente equivale a 1 euro\r\n    \r\n    struct Character {\r\n        string name;\r\n        uint32 id;\r\n        uint32 readyTime;\r\n        uint16 xp;\r\n        uint8 rarity;\r\n        uint8 level; \r\n    }\r\n    \r\n    Character[] public book; //raccolta di tutti i personaggi creati \r\n    \r\n    //contiene l'associazione (id personaggio) - (indirizzo proprietario) \r\n    mapping (uint => address) public characterToOwner;\r\n    \r\n    //contiene l'associazione (indirizzo giocatore) - (numero di personaggi posseduti)\r\n    mapping (address => uint) ownerCharacterCount;\r\n    \r\n    ///@dev         funzione che restituisce la lunghezza dell'array dinamico \"book\"\r\n    function _getArrayLength() private view returns(uint) {\r\n        return book.length;\r\n    }\r\n    \r\n    ///@dev          funzione che genera casualmente la rarità del personaggio \r\n    ///@param _id    l'id univoco del personaggio\r\n    ///@return rare  il valore che determina la rarità del personaggio\r\n    function _generateRarity(uint _id) private pure returns(uint) {\r\n        uint rare = 1;\r\n        uint count = 2;\r\n        \r\n        while(count<=5) {\r\n            if(_id % count == 0){\r\n                rare = count;\r\n                return rare;\r\n            }\r\n            count += 1; \r\n        }\r\n        \r\n        return rare;\r\n    }\r\n    \r\n    ///@dev             la funzione inizializza gli attributi del personaggio \r\n    ///@param _name     il nome che il giocatore sceglie per il proprio personaggio\r\n    ///@param _id       l'id univoco del personaggio\r\n    ///@param _rarity   il valore che determina la rarità del personaggio\r\n    function _createNewCharacter(string memory _name, uint _id, uint _rarity) private {\r\n        book.push(Character(_name, uint32(_id), uint32(now + cooldownTime * 1), 10, uint8(_rarity), 1));\r\n        characterToOwner[_id] = msg.sender; //associa l'id del personaggio all'indirizzo con cui è stato creato \r\n        ownerCharacterCount[msg.sender]++; //aumenta la quantità di personaggi in possesso per un tale indirizzo\r\n        emit NewCharacter(_name, _id, 10, _rarity, 1);\r\n    }\r\n    \r\n    ///@dev             funzione che permette al giocatore di creare un personaggio a partire da due personaggi in suo possesso\r\n    ///@param _name     il nome che il giocatore sceglie per il proprio per il proprio personaggio\r\n    ///@param _firstId  l'id del primo personaggio scelto per il breeding \r\n    ///@param _secondId l'id del secondo personaggio scelto per il breeding\r\n    function _createCharacterFromBreeding(string memory _name, uint _firstId, uint _secondId) internal {\r\n        uint idCharacter = _getArrayLength();\r\n        \r\n        if((idCharacter % (_firstId + _secondId)) == 0){\r\n            _createNewCharacter(_name, idCharacter, 5);\r\n        }else{\r\n            _createNewCharacter(_name, idCharacter, _generateRarity(idCharacter));\r\n        }\r\n    }\r\n    \r\n    ///@dev             funzione che permette al giocatore di creare un personaggio\r\n    ///@dev             NOTA: questa funzione può essere chiamata solo due volte (sono necessari almeno due personaggi per poter usare tutte le funzioni)\r\n    ///@param _name     il nome che il giocatore sceglie per il proprio personaggio\r\n    function createRandomCharacter(string calldata _name) external payable {\r\n        require(ownerCharacterCount[msg.sender] < 2);\r\n        require(msg.value == creationFee);\r\n        uint idCharacter = _getArrayLength();\r\n        _createNewCharacter(_name, idCharacter, _generateRarity(idCharacter));\r\n    }\r\n    \r\n    ///@dev     funzione che permette al proprietario del contratto di trasferire i fondi depositati dai giocatori al proprio account \r\n    function withdraw() external onlyOwner {\r\n        address payable _owner = address(uint160(owner()));\r\n        _owner.transfer(address(this).balance);\r\n    }\r\n\r\n    ///@dev     funzione che permette al proprietario del contratto di modificare il prezzo per creare un personaggio \r\n    function setCreationFee(uint _fee) external onlyOwner {\r\n        creationFee = _fee;\r\n    }\r\n    \r\n    ///@dev             funzione che permette di visualizzare la lista dei personaggi associati ad un certo indirizzo \r\n    ///@param _owner    l'inidirizzo di un giocatore\r\n    ///@return result   restituisce un array contenente la lista dei personaggi associati ad un indirizzo\r\n    function getCharactersByOwner(address _owner) external view returns(uint[] memory) {\r\n        uint[] memory result = new uint[](ownerCharacterCount[_owner]);\r\n        uint counter = 0;\r\n        for (uint i = 0; i < book.length; i++) {\r\n            if (characterToOwner[i] == _owner) {\r\n                result[counter] = i;\r\n                counter++;\r\n            }\r\n        }\r\n        return result;\r\n    }\r\n\r\n    function kill() public onlyOwner {\r\n    \taddress payable _owner = address(uint160(owner()));\r\n    \tselfdestruct(_owner);\r\n    }\r\n\r\n}",
  "sourcePath": "C:\\Users\\giovanna\\Desktop\\UNIBG\\Tesi_Progetto\\TruffleProject\\contracts\\Characters.sol",
  "compiler": {
    "name": "solc",
    "version": "0.6.2+commit.bacdbe57.Emscripten.clang"
  },
  "schemaVersion": "3.1.0",
  "updatedAt": "2020-07-30T09:03:09.041Z",
  "networkType": "ethereum",
  "devdoc": {
    "methods": {
      "createRandomCharacter(string)": {
        "details": "funzione che permette al giocatore di creare un personaggioNOTA: questa funzione può essere chiamata solo due volte (sono necessari almeno due personaggi per poter usare tutte le funzioni)",
        "params": {
          "_name": "il nome che il giocatore sceglie per il proprio personaggio"
        }
      },
      "getCharactersByOwner(address)": {
        "details": "funzione che permette di visualizzare la lista dei personaggi associati ad un certo indirizzo ",
        "params": {
          "_owner": "l'inidirizzo di un giocatore"
        },
        "returns": {
          "_0": "result   restituisce un array contenente la lista dei personaggi associati ad un indirizzo"
        }
      },
      "owner()": {
        "details": "Returns the address of the current owner."
      },
      "renounceOwnership()": {
        "details": "Leaves the contract without owner. It will not be possible to call `onlyOwner` functions anymore. Can only be called by the current owner.     * NOTE: Renouncing ownership will leave the contract without an owner, thereby removing any functionality that is only available to the owner."
      },
      "setCreationFee(uint256)": {
        "details": "funzione che permette al proprietario del contratto di modificare il prezzo per creare un personaggio "
      },
      "transferOwnership(address)": {
        "details": "Transfers ownership of the contract to a new account (`newOwner`). Can only be called by the current owner."
      },
      "withdraw()": {
        "details": "funzione che permette al proprietario del contratto di trasferire i fondi depositati dai giocatori al proprio account "
      }
    }
  },
  "userdoc": {
    "methods": {}
  }
}